{
	"mintable-token/mintable-token.sol": {
		"FREE": {
			"abi": [
				{
					"inputs": [
						{
							"internalType": "string",
							"name": "name",
							"type": "string"
						},
						{
							"internalType": "string",
							"name": "symbol",
							"type": "string"
						},
						{
							"internalType": "uint256",
							"name": "initialSupply",
							"type": "uint256"
						}
					],
					"stateMutability": "payable",
					"type": "constructor"
				},
				{
					"anonymous": false,
					"inputs": [
						{
							"indexed": true,
							"internalType": "address",
							"name": "owner",
							"type": "address"
						},
						{
							"indexed": true,
							"internalType": "address",
							"name": "spender",
							"type": "address"
						},
						{
							"indexed": false,
							"internalType": "uint256",
							"name": "value",
							"type": "uint256"
						}
					],
					"name": "Approval",
					"type": "event"
				},
				{
					"anonymous": false,
					"inputs": [
						{
							"indexed": true,
							"internalType": "address",
							"name": "previousOwner",
							"type": "address"
						},
						{
							"indexed": true,
							"internalType": "address",
							"name": "newOwner",
							"type": "address"
						}
					],
					"name": "OwnershipTransferred",
					"type": "event"
				},
				{
					"anonymous": false,
					"inputs": [
						{
							"indexed": true,
							"internalType": "address",
							"name": "from",
							"type": "address"
						},
						{
							"indexed": true,
							"internalType": "address",
							"name": "to",
							"type": "address"
						},
						{
							"indexed": false,
							"internalType": "uint256",
							"name": "value",
							"type": "uint256"
						}
					],
					"name": "Transfer",
					"type": "event"
				},
				{
					"inputs": [
						{
							"internalType": "address",
							"name": "owner",
							"type": "address"
						},
						{
							"internalType": "address",
							"name": "spender",
							"type": "address"
						}
					],
					"name": "allowance",
					"outputs": [
						{
							"internalType": "uint256",
							"name": "",
							"type": "uint256"
						}
					],
					"stateMutability": "view",
					"type": "function"
				},
				{
					"inputs": [
						{
							"internalType": "address",
							"name": "spender",
							"type": "address"
						},
						{
							"internalType": "uint256",
							"name": "amount",
							"type": "uint256"
						}
					],
					"name": "approve",
					"outputs": [
						{
							"internalType": "bool",
							"name": "",
							"type": "bool"
						}
					],
					"stateMutability": "nonpayable",
					"type": "function"
				},
				{
					"inputs": [
						{
							"internalType": "address",
							"name": "account",
							"type": "address"
						}
					],
					"name": "balanceOf",
					"outputs": [
						{
							"internalType": "uint256",
							"name": "",
							"type": "uint256"
						}
					],
					"stateMutability": "view",
					"type": "function"
				},
				{
					"inputs": [],
					"name": "decimals",
					"outputs": [
						{
							"internalType": "uint8",
							"name": "",
							"type": "uint8"
						}
					],
					"stateMutability": "view",
					"type": "function"
				},
				{
					"inputs": [
						{
							"internalType": "address",
							"name": "spender",
							"type": "address"
						},
						{
							"internalType": "uint256",
							"name": "subtractedValue",
							"type": "uint256"
						}
					],
					"name": "decreaseAllowance",
					"outputs": [
						{
							"internalType": "bool",
							"name": "",
							"type": "bool"
						}
					],
					"stateMutability": "nonpayable",
					"type": "function"
				},
				{
					"inputs": [
						{
							"internalType": "address",
							"name": "spender",
							"type": "address"
						},
						{
							"internalType": "uint256",
							"name": "addedValue",
							"type": "uint256"
						}
					],
					"name": "increaseAllowance",
					"outputs": [
						{
							"internalType": "bool",
							"name": "",
							"type": "bool"
						}
					],
					"stateMutability": "nonpayable",
					"type": "function"
				},
				{
					"inputs": [
						{
							"internalType": "uint256",
							"name": "amount",
							"type": "uint256"
						},
						{
							"internalType": "address",
							"name": "to",
							"type": "address"
						}
					],
					"name": "mint",
					"outputs": [],
					"stateMutability": "nonpayable",
					"type": "function"
				},
				{
					"inputs": [],
					"name": "name",
					"outputs": [
						{
							"internalType": "string",
							"name": "",
							"type": "string"
						}
					],
					"stateMutability": "view",
					"type": "function"
				},
				{
					"inputs": [],
					"name": "owner",
					"outputs": [
						{
							"internalType": "address",
							"name": "",
							"type": "address"
						}
					],
					"stateMutability": "view",
					"type": "function"
				},
				{
					"inputs": [],
					"name": "renounceOwnership",
					"outputs": [],
					"stateMutability": "nonpayable",
					"type": "function"
				},
				{
					"inputs": [],
					"name": "symbol",
					"outputs": [
						{
							"internalType": "string",
							"name": "",
							"type": "string"
						}
					],
					"stateMutability": "view",
					"type": "function"
				},
				{
					"inputs": [],
					"name": "totalSupply",
					"outputs": [
						{
							"internalType": "uint256",
							"name": "",
							"type": "uint256"
						}
					],
					"stateMutability": "view",
					"type": "function"
				},
				{
					"inputs": [
						{
							"internalType": "address",
							"name": "to",
							"type": "address"
						},
						{
							"internalType": "uint256",
							"name": "amount",
							"type": "uint256"
						}
					],
					"name": "transfer",
					"outputs": [
						{
							"internalType": "bool",
							"name": "",
							"type": "bool"
						}
					],
					"stateMutability": "nonpayable",
					"type": "function"
				},
				{
					"inputs": [
						{
							"internalType": "address",
							"name": "from",
							"type": "address"
						},
						{
							"internalType": "address",
							"name": "to",
							"type": "address"
						},
						{
							"internalType": "uint256",
							"name": "amount",
							"type": "uint256"
						}
					],
					"name": "transferFrom",
					"outputs": [
						{
							"internalType": "bool",
							"name": "",
							"type": "bool"
						}
					],
					"stateMutability": "nonpayable",
					"type": "function"
				},
				{
					"inputs": [
						{
							"internalType": "address",
							"name": "newOwner",
							"type": "address"
						}
					],
					"name": "transferOwnership",
					"outputs": [],
					"stateMutability": "nonpayable",
					"type": "function"
				}
			],
			"devdoc": {
				"author": "Breakthrough Labs Inc.",
				"custom:address": "5",
				"custom:default-precision": "18",
				"custom:simple-description": "Token that allows the owner to mint as many tokens as desired.",
				"custom:version": "1.0.7",
				"details": "ERC20 token with the following features:  - Premint your initial supply.  - Mint as many tokens as you want with no cap.  - Only the contract owner can mint new tokens.",
				"events": {
					"Approval(address,address,uint256)": {
						"details": "Emitted when the allowance of a `spender` for an `owner` is set by a call to {approve}. `value` is the new allowance."
					},
					"Transfer(address,address,uint256)": {
						"details": "Emitted when `value` tokens are moved from one account (`from`) to another (`to`). Note that `value` may be zero."
					}
				},
				"kind": "dev",
				"methods": {
					"allowance(address,address)": {
						"details": "See {IERC20-allowance}."
					},
					"approve(address,uint256)": {
						"details": "See {IERC20-approve}. NOTE: If `amount` is the maximum `uint256`, the allowance is not updated on `transferFrom`. This is semantically equivalent to an infinite approval. Requirements: - `spender` cannot be the zero address."
					},
					"balanceOf(address)": {
						"details": "See {IERC20-balanceOf}."
					},
					"constructor": {
						"params": {
							"initialSupply": "Initial Supply",
							"name": "Token Name",
							"symbol": "Token Symbol"
						}
					},
					"decimals()": {
						"details": "Returns the number of decimals used to get its user representation. For example, if `decimals` equals `2`, a balance of `505` tokens should be displayed to a user as `5.05` (`505 / 10 ** 2`). Tokens usually opt for a value of 18, imitating the relationship between Ether and Wei. This is the value {ERC20} uses, unless this function is overridden; NOTE: This information is only used for _display_ purposes: it in no way affects any of the arithmetic of the contract, including {IERC20-balanceOf} and {IERC20-transfer}."
					},
					"decreaseAllowance(address,uint256)": {
						"details": "Atomically decreases the allowance granted to `spender` by the caller. This is an alternative to {approve} that can be used as a mitigation for problems described in {IERC20-approve}. Emits an {Approval} event indicating the updated allowance. Requirements: - `spender` cannot be the zero address. - `spender` must have allowance for the caller of at least `subtractedValue`."
					},
					"increaseAllowance(address,uint256)": {
						"details": "Atomically increases the allowance granted to `spender` by the caller. This is an alternative to {approve} that can be used as a mitigation for problems described in {IERC20-approve}. Emits an {Approval} event indicating the updated allowance. Requirements: - `spender` cannot be the zero address."
					},
					"mint(uint256,address)": {
						"details": "Creates `amount` tokens and assigns them to `to`, increasing the total supply. Only accessible by the contract owner."
					},
					"name()": {
						"details": "Returns the name of the token."
					},
					"owner()": {
						"details": "Returns the address of the current owner."
					},
					"renounceOwnership()": {
						"details": "Leaves the contract without owner. It will not be possible to call `onlyOwner` functions anymore. Can only be called by the current owner. NOTE: Renouncing ownership will leave the contract without an owner, thereby removing any functionality that is only available to the owner."
					},
					"symbol()": {
						"details": "Returns the symbol of the token, usually a shorter version of the name."
					},
					"totalSupply()": {
						"details": "See {IERC20-totalSupply}."
					},
					"transfer(address,uint256)": {
						"details": "See {IERC20-transfer}. Requirements: - `to` cannot be the zero address. - the caller must have a balance of at least `amount`."
					},
					"transferFrom(address,address,uint256)": {
						"details": "See {IERC20-transferFrom}. Emits an {Approval} event indicating the updated allowance. This is not required by the EIP. See the note at the beginning of {ERC20}. NOTE: Does not update the allowance if the current allowance is the maximum `uint256`. Requirements: - `from` and `to` cannot be the zero address. - `from` must have a balance of at least `amount`. - the caller must have allowance for ``from``'s tokens of at least `amount`."
					},
					"transferOwnership(address)": {
						"details": "Transfers ownership of the contract to a new account (`newOwner`). Can only be called by the current owner."
					}
				},
				"title": "Mintable Token",
				"version": 1
			},
			"evm": {
				"assembly": "    /* \"mintable-token/mintable-token.sol\":671:1272  contract FREE is ERC20, Ownable {... */\n  mstore(0x40, 0x80)\n    /* \"mintable-token/mintable-token.sol\":832:1016  constructor(... */\n  mload(0x40)\n  sub(codesize, bytecodeSize)\n  dup1\n  bytecodeSize\n  dup4\n  codecopy\n  dup2\n  add\n  0x40\n  dup2\n  swap1\n  mstore\n  tag_1\n  swap2\n  tag_2\n  jump\t// in\ntag_1:\n    /* \"mintable-token/mintable-token.sol\":953:957  name */\n  dup3\n    /* \"mintable-token/mintable-token.sol\":959:965  symbol */\n  dup3\n    /* \"mintable-token/@openzeppelin/contracts/token/ERC20/ERC20.sol\":2044:2049  _name */\n  0x03\n    /* \"mintable-token/@openzeppelin/contracts/token/ERC20/ERC20.sol\":2044:2057  _name = name_ */\n  tag_7\n    /* \"mintable-token/mintable-token.sol\":953:957  name */\n  dup4\n    /* \"mintable-token/@openzeppelin/contracts/token/ERC20/ERC20.sol\":2044:2049  _name */\n  dup3\n    /* \"mintable-token/@openzeppelin/contracts/token/ERC20/ERC20.sol\":2044:2057  _name = name_ */\n  tag_8\n  jump\t// in\ntag_7:\n  pop\n    /* \"mintable-token/@openzeppelin/contracts/token/ERC20/ERC20.sol\":2067:2074  _symbol */\n  0x04\n    /* \"mintable-token/@openzeppelin/contracts/token/ERC20/ERC20.sol\":2067:2084  _symbol = symbol_ */\n  tag_9\n    /* \"mintable-token/@openzeppelin/contracts/token/ERC20/ERC20.sol\":2077:2084  symbol_ */\n  dup3\n    /* \"mintable-token/@openzeppelin/contracts/token/ERC20/ERC20.sol\":2067:2074  _symbol */\n  dup3\n    /* \"mintable-token/@openzeppelin/contracts/token/ERC20/ERC20.sol\":2067:2084  _symbol = symbol_ */\n  tag_8\n  jump\t// in\ntag_9:\n  pop\n    /* \"mintable-token/@openzeppelin/contracts/token/ERC20/ERC20.sol\":1978:2091  constructor(string memory name_, string memory symbol_) {... */\n  pop\n  pop\n    /* \"mintable-token/@openzeppelin/contracts/access/Ownable.sol\":936:968  _transferOwnership(_msgSender()) */\n  tag_11\n    /* \"mintable-token/@openzeppelin/contracts/access/Ownable.sol\":955:967  _msgSender() */\n  tag_12\n    /* \"mintable-token/@openzeppelin/contracts/access/Ownable.sol\":955:965  _msgSender */\n  shl(0x20, tag_13)\n    /* \"mintable-token/@openzeppelin/contracts/access/Ownable.sol\":955:967  _msgSender() */\n  0x20\n  shr\n  jump\t// in\ntag_12:\n    /* \"mintable-token/@openzeppelin/contracts/access/Ownable.sol\":936:954  _transferOwnership */\n  tag_14\n    /* \"mintable-token/@openzeppelin/contracts/access/Ownable.sol\":936:968  _transferOwnership(_msgSender()) */\n  jump\t// in\ntag_11:\n    /* \"mintable-token/mintable-token.sol\":977:1009  _mint(msg.sender, initialSupply) */\n  tag_16\n    /* \"mintable-token/mintable-token.sol\":983:993  msg.sender */\n  caller\n    /* \"mintable-token/mintable-token.sol\":995:1008  initialSupply */\n  dup3\n    /* \"mintable-token/mintable-token.sol\":977:982  _mint */\n  tag_17\n    /* \"mintable-token/mintable-token.sol\":977:1009  _mint(msg.sender, initialSupply) */\n  jump\t// in\ntag_16:\n    /* \"mintable-token/mintable-token.sol\":832:1016  constructor(... */\n  pop\n  pop\n  pop\n    /* \"mintable-token/mintable-token.sol\":671:1272  contract FREE is ERC20, Ownable {... */\n  jump(tag_42)\n    /* \"mintable-token/@openzeppelin/contracts/utils/Context.sol\":640:736  function _msgSender() internal view virtual returns (address) {... */\ntag_13:\n    /* \"mintable-token/@openzeppelin/contracts/utils/Context.sol\":719:729  msg.sender */\n  caller\n  swap1\n    /* \"mintable-token/@openzeppelin/contracts/utils/Context.sol\":640:736  function _msgSender() internal view virtual returns (address) {... */\n  jump\t// out\n    /* \"mintable-token/@openzeppelin/contracts/access/Ownable.sol\":2433:2620  function _transferOwnership(address newOwner) internal virtual {... */\ntag_14:\n    /* \"mintable-token/@openzeppelin/contracts/access/Ownable.sol\":2525:2531  _owner */\n  0x05\n  dup1\n  sload\n  sub(shl(0xa0, 0x01), 0x01)\n    /* \"mintable-token/@openzeppelin/contracts/access/Ownable.sol\":2541:2558  _owner = newOwner */\n  dup4\n  dup2\n  and\n  not(sub(shl(0xa0, 0x01), 0x01))\n  dup4\n  and\n  dup2\n  or\n  swap1\n  swap4\n  sstore\n    /* \"mintable-token/@openzeppelin/contracts/access/Ownable.sol\":2573:2613  OwnershipTransferred(oldOwner, newOwner) */\n  mload(0x40)\n    /* \"mintable-token/@openzeppelin/contracts/access/Ownable.sol\":2525:2531  _owner */\n  swap2\n  and\n  swap2\n    /* \"mintable-token/@openzeppelin/contracts/access/Ownable.sol\":2541:2558  _owner = newOwner */\n  swap1\n    /* \"mintable-token/@openzeppelin/contracts/access/Ownable.sol\":2525:2531  _owner */\n  dup3\n  swap1\n    /* \"mintable-token/@openzeppelin/contracts/access/Ownable.sol\":2573:2613  OwnershipTransferred(oldOwner, newOwner) */\n  0x8be0079c531659141344cd1fd0a4f28419497f9722a3daafe3b4186f6b6457e0\n  swap1\n    /* \"mintable-token/@openzeppelin/contracts/access/Ownable.sol\":2506:2522  address oldOwner */\n  0x00\n  swap1\n    /* \"mintable-token/@openzeppelin/contracts/access/Ownable.sol\":2573:2613  OwnershipTransferred(oldOwner, newOwner) */\n  log3\n    /* \"mintable-token/@openzeppelin/contracts/access/Ownable.sol\":2496:2620  {... */\n  pop\n    /* \"mintable-token/@openzeppelin/contracts/access/Ownable.sol\":2433:2620  function _transferOwnership(address newOwner) internal virtual {... */\n  pop\n  jump\t// out\n    /* \"mintable-token/@openzeppelin/contracts/token/ERC20/ERC20.sol\":8402:8791  function _mint(address account, uint256 amount) internal virtual {... */\ntag_17:\n  sub(shl(0xa0, 0x01), 0x01)\n    /* \"mintable-token/@openzeppelin/contracts/token/ERC20/ERC20.sol\":8485:8506  account != address(0) */\n  dup3\n  and\n    /* \"mintable-token/@openzeppelin/contracts/token/ERC20/ERC20.sol\":8477:8542  require(account != address(0), \"ERC20: mint to the zero address\") */\n  tag_22\n  jumpi\n  mload(0x40)\n  shl(0xe5, 0x461bcd)\n  dup2\n  mstore\n    /* \"#utility.yul\":4380:4382   */\n  0x20\n    /* \"mintable-token/@openzeppelin/contracts/token/ERC20/ERC20.sol\":8477:8542  require(account != address(0), \"ERC20: mint to the zero address\") */\n  0x04\n  dup3\n  add\n    /* \"#utility.yul\":4362:4383   */\n  mstore\n    /* \"#utility.yul\":4419:4421   */\n  0x1f\n    /* \"#utility.yul\":4399:4417   */\n  0x24\n  dup3\n  add\n    /* \"#utility.yul\":4392:4422   */\n  mstore\n    /* \"#utility.yul\":4458:4491   */\n  0x45524332303a206d696e7420746f20746865207a65726f206164647265737300\n    /* \"#utility.yul\":4438:4456   */\n  0x44\n  dup3\n  add\n    /* \"#utility.yul\":4431:4492   */\n  mstore\n    /* \"#utility.yul\":4509:4527   */\n  0x64\n  add\n    /* \"mintable-token/@openzeppelin/contracts/token/ERC20/ERC20.sol\":8477:8542  require(account != address(0), \"ERC20: mint to the zero address\") */\n  mload(0x40)\n  dup1\n  swap2\n  sub\n  swap1\n  revert\ntag_22:\n    /* \"mintable-token/@openzeppelin/contracts/token/ERC20/ERC20.sol\":8629:8635  amount */\n  dup1\n    /* \"mintable-token/@openzeppelin/contracts/token/ERC20/ERC20.sol\":8613:8625  _totalSupply */\n  0x02\n  0x00\n    /* \"mintable-token/@openzeppelin/contracts/token/ERC20/ERC20.sol\":8613:8635  _totalSupply += amount */\n  dup3\n  dup3\n  sload\n  tag_27\n  swap2\n  swap1\n  tag_28\n  jump\t// in\ntag_27:\n  swap1\n  swap2\n  sstore\n  pop\n  pop\n  sub(shl(0xa0, 0x01), 0x01)\n    /* \"mintable-token/@openzeppelin/contracts/token/ERC20/ERC20.sol\":8645:8663  _balances[account] */\n  dup3\n  and\n    /* \"mintable-token/@openzeppelin/contracts/token/ERC20/ERC20.sol\":8645:8654  _balances */\n  0x00\n    /* \"mintable-token/@openzeppelin/contracts/token/ERC20/ERC20.sol\":8645:8663  _balances[account] */\n  swap1\n  dup2\n  mstore\n  0x20\n  dup2\n  swap1\n  mstore\n  0x40\n  dup2\n  keccak256\n    /* \"mintable-token/@openzeppelin/contracts/token/ERC20/ERC20.sol\":8645:8673  _balances[account] += amount */\n  dup1\n  sload\n    /* \"mintable-token/@openzeppelin/contracts/token/ERC20/ERC20.sol\":8667:8673  amount */\n  dup4\n  swap3\n    /* \"mintable-token/@openzeppelin/contracts/token/ERC20/ERC20.sol\":8645:8654  _balances */\n  swap1\n    /* \"mintable-token/@openzeppelin/contracts/token/ERC20/ERC20.sol\":8645:8673  _balances[account] += amount */\n  tag_29\n  swap1\n    /* \"mintable-token/@openzeppelin/contracts/token/ERC20/ERC20.sol\":8667:8673  amount */\n  dup5\n  swap1\n    /* \"mintable-token/@openzeppelin/contracts/token/ERC20/ERC20.sol\":8645:8673  _balances[account] += amount */\n  tag_28\n  jump\t// in\ntag_29:\n  swap1\n  swap2\n  sstore\n  pop\n  pop\n    /* \"mintable-token/@openzeppelin/contracts/token/ERC20/ERC20.sol\":8688:8725  Transfer(address(0), account, amount) */\n  mload(0x40)\n    /* \"#utility.yul\":4911:4936   */\n  dup2\n  dup2\n  mstore\n  sub(shl(0xa0, 0x01), 0x01)\n    /* \"mintable-token/@openzeppelin/contracts/token/ERC20/ERC20.sol\":8688:8725  Transfer(address(0), account, amount) */\n  dup4\n  and\n  swap1\n    /* \"mintable-token/@openzeppelin/contracts/token/ERC20/ERC20.sol\":8705:8706  0 */\n  0x00\n  swap1\n    /* \"mintable-token/@openzeppelin/contracts/token/ERC20/ERC20.sol\":8688:8725  Transfer(address(0), account, amount) */\n  0xddf252ad1be2c89b69c2b068fc378daa952ba7f163c4a11628f55a4df523b3ef\n  swap1\n    /* \"#utility.yul\":4899:4901   */\n  0x20\n    /* \"#utility.yul\":4884:4902   */\n  add\n    /* \"mintable-token/@openzeppelin/contracts/token/ERC20/ERC20.sol\":8688:8725  Transfer(address(0), account, amount) */\n  mload(0x40)\n  dup1\n  swap2\n  sub\n  swap1\n  log3\n    /* \"mintable-token/@openzeppelin/contracts/token/ERC20/ERC20.sol\":8402:8791  function _mint(address account, uint256 amount) internal virtual {... */\n  pop\n  pop\n  jump\t// out\n    /* \"mintable-token/@openzeppelin/contracts/token/ERC20/ERC20.sol\":11786:11907  function _beforeTokenTransfer(... */\ntag_26:\n  pop\n  pop\n  pop\n  jump\t// out\n    /* \"#utility.yul\":14:141   */\ntag_36:\n    /* \"#utility.yul\":75:85   */\n  0x4e487b71\n    /* \"#utility.yul\":70:73   */\n  0xe0\n    /* \"#utility.yul\":66:86   */\n  shl\n    /* \"#utility.yul\":63:64   */\n  0x00\n    /* \"#utility.yul\":56:87   */\n  mstore\n    /* \"#utility.yul\":106:110   */\n  0x41\n    /* \"#utility.yul\":103:104   */\n  0x04\n    /* \"#utility.yul\":96:111   */\n  mstore\n    /* \"#utility.yul\":130:134   */\n  0x24\n    /* \"#utility.yul\":127:128   */\n  0x00\n    /* \"#utility.yul\":120:135   */\n  revert\n    /* \"#utility.yul\":146:990   */\ntag_37:\n    /* \"#utility.yul\":200:205   */\n  0x00\n    /* \"#utility.yul\":253:256   */\n  dup3\n    /* \"#utility.yul\":246:250   */\n  0x1f\n    /* \"#utility.yul\":238:244   */\n  dup4\n    /* \"#utility.yul\":234:251   */\n  add\n    /* \"#utility.yul\":230:257   */\n  slt\n    /* \"#utility.yul\":220:275   */\n  tag_45\n  jumpi\n    /* \"#utility.yul\":271:272   */\n  0x00\n    /* \"#utility.yul\":268:269   */\n  dup1\n    /* \"#utility.yul\":261:273   */\n  revert\n    /* \"#utility.yul\":220:275   */\ntag_45:\n    /* \"#utility.yul\":294:307   */\n  dup2\n  mload\n  sub(shl(0x40, 0x01), 0x01)\n    /* \"#utility.yul\":356:366   */\n  dup1\n  dup3\n  gt\n    /* \"#utility.yul\":353:389   */\n  iszero\n  tag_47\n  jumpi\n    /* \"#utility.yul\":369:387   */\n  tag_47\n  tag_36\n  jump\t// in\ntag_47:\n    /* \"#utility.yul\":444:446   */\n  0x40\n    /* \"#utility.yul\":438:447   */\n  mload\n    /* \"#utility.yul\":412:414   */\n  0x1f\n    /* \"#utility.yul\":498:511   */\n  dup4\n  add\n  not(0x1f)\n    /* \"#utility.yul\":494:516   */\n  swap1\n  dup2\n  and\n    /* \"#utility.yul\":518:520   */\n  0x3f\n    /* \"#utility.yul\":490:521   */\n  add\n    /* \"#utility.yul\":486:526   */\n  and\n    /* \"#utility.yul\":474:527   */\n  dup2\n  add\n  swap1\n    /* \"#utility.yul\":542:560   */\n  dup3\n  dup3\n  gt\n    /* \"#utility.yul\":562:584   */\n  dup2\n  dup4\n  lt\n    /* \"#utility.yul\":539:585   */\n  or\n    /* \"#utility.yul\":536:608   */\n  iszero\n  tag_49\n  jumpi\n    /* \"#utility.yul\":588:606   */\n  tag_49\n  tag_36\n  jump\t// in\ntag_49:\n    /* \"#utility.yul\":628:638   */\n  dup2\n    /* \"#utility.yul\":624:626   */\n  0x40\n    /* \"#utility.yul\":617:639   */\n  mstore\n    /* \"#utility.yul\":663:665   */\n  dup4\n    /* \"#utility.yul\":655:661   */\n  dup2\n    /* \"#utility.yul\":648:666   */\n  mstore\n    /* \"#utility.yul\":685:689   */\n  0x20\n    /* \"#utility.yul\":675:689   */\n  swap3\n  pop\n    /* \"#utility.yul\":732:735   */\n  dup7\n    /* \"#utility.yul\":725:729   */\n  0x20\n    /* \"#utility.yul\":720:722   */\n  dup6\n    /* \"#utility.yul\":712:718   */\n  dup9\n    /* \"#utility.yul\":708:723   */\n  add\n    /* \"#utility.yul\":704:730   */\n  add\n    /* \"#utility.yul\":701:736   */\n  gt\n    /* \"#utility.yul\":698:753   */\n  iszero\n  tag_50\n  jumpi\n    /* \"#utility.yul\":749:750   */\n  0x00\n    /* \"#utility.yul\":746:747   */\n  dup1\n    /* \"#utility.yul\":739:751   */\n  revert\n    /* \"#utility.yul\":698:753   */\ntag_50:\n    /* \"#utility.yul\":771:772   */\n  0x00\n    /* \"#utility.yul\":762:772   */\n  swap2\n  pop\n    /* \"#utility.yul\":781:914   */\ntag_51:\n    /* \"#utility.yul\":795:797   */\n  dup4\n    /* \"#utility.yul\":792:793   */\n  dup3\n    /* \"#utility.yul\":789:798   */\n  lt\n    /* \"#utility.yul\":781:914   */\n  iszero\n  tag_53\n  jumpi\n    /* \"#utility.yul\":883:897   */\n  dup6\n  dup3\n  add\n    /* \"#utility.yul\":879:902   */\n  dup4\n  add\n    /* \"#utility.yul\":873:903   */\n  mload\n    /* \"#utility.yul\":852:866   */\n  dup2\n  dup4\n  add\n    /* \"#utility.yul\":848:871   */\n  dup5\n  add\n    /* \"#utility.yul\":841:904   */\n  mstore\n    /* \"#utility.yul\":806:816   */\n  swap1\n  dup3\n  add\n  swap1\n    /* \"#utility.yul\":781:914   */\n  jump(tag_51)\ntag_53:\n    /* \"#utility.yul\":958:959   */\n  0x00\n    /* \"#utility.yul\":951:955   */\n  0x20\n    /* \"#utility.yul\":946:948   */\n  dup6\n    /* \"#utility.yul\":938:944   */\n  dup4\n    /* \"#utility.yul\":934:949   */\n  add\n    /* \"#utility.yul\":930:956   */\n  add\n    /* \"#utility.yul\":923:960   */\n  mstore\n    /* \"#utility.yul\":978:984   */\n  dup1\n    /* \"#utility.yul\":969:984   */\n  swap5\n  pop\n  pop\n  pop\n  pop\n  pop\n    /* \"#utility.yul\":146:990   */\n  swap3\n  swap2\n  pop\n  pop\n  jump\t// out\n    /* \"#utility.yul\":995:1618   */\ntag_2:\n    /* \"#utility.yul\":1103:1109   */\n  0x00\n    /* \"#utility.yul\":1111:1117   */\n  dup1\n    /* \"#utility.yul\":1119:1125   */\n  0x00\n    /* \"#utility.yul\":1172:1174   */\n  0x60\n    /* \"#utility.yul\":1160:1169   */\n  dup5\n    /* \"#utility.yul\":1151:1158   */\n  dup7\n    /* \"#utility.yul\":1147:1170   */\n  sub\n    /* \"#utility.yul\":1143:1175   */\n  slt\n    /* \"#utility.yul\":1140:1192   */\n  iszero\n  tag_55\n  jumpi\n    /* \"#utility.yul\":1188:1189   */\n  0x00\n    /* \"#utility.yul\":1185:1186   */\n  dup1\n    /* \"#utility.yul\":1178:1190   */\n  revert\n    /* \"#utility.yul\":1140:1192   */\ntag_55:\n    /* \"#utility.yul\":1215:1231   */\n  dup4\n  mload\n  sub(shl(0x40, 0x01), 0x01)\n    /* \"#utility.yul\":1280:1294   */\n  dup1\n  dup3\n  gt\n    /* \"#utility.yul\":1277:1311   */\n  iszero\n  tag_56\n  jumpi\n    /* \"#utility.yul\":1307:1308   */\n  0x00\n    /* \"#utility.yul\":1304:1305   */\n  dup1\n    /* \"#utility.yul\":1297:1309   */\n  revert\n    /* \"#utility.yul\":1277:1311   */\ntag_56:\n    /* \"#utility.yul\":1330:1391   */\n  tag_57\n    /* \"#utility.yul\":1383:1390   */\n  dup8\n    /* \"#utility.yul\":1374:1380   */\n  dup4\n    /* \"#utility.yul\":1363:1372   */\n  dup9\n    /* \"#utility.yul\":1359:1381   */\n  add\n    /* \"#utility.yul\":1330:1391   */\n  tag_37\n  jump\t// in\ntag_57:\n    /* \"#utility.yul\":1320:1391   */\n  swap5\n  pop\n    /* \"#utility.yul\":1437:1439   */\n  0x20\n    /* \"#utility.yul\":1426:1435   */\n  dup7\n    /* \"#utility.yul\":1422:1440   */\n  add\n    /* \"#utility.yul\":1416:1441   */\n  mload\n    /* \"#utility.yul\":1400:1441   */\n  swap2\n  pop\n    /* \"#utility.yul\":1466:1468   */\n  dup1\n    /* \"#utility.yul\":1456:1464   */\n  dup3\n    /* \"#utility.yul\":1453:1469   */\n  gt\n    /* \"#utility.yul\":1450:1486   */\n  iszero\n  tag_58\n  jumpi\n    /* \"#utility.yul\":1482:1483   */\n  0x00\n    /* \"#utility.yul\":1479:1480   */\n  dup1\n    /* \"#utility.yul\":1472:1484   */\n  revert\n    /* \"#utility.yul\":1450:1486   */\ntag_58:\n  pop\n    /* \"#utility.yul\":1505:1568   */\n  tag_59\n    /* \"#utility.yul\":1560:1567   */\n  dup7\n    /* \"#utility.yul\":1549:1557   */\n  dup3\n    /* \"#utility.yul\":1538:1547   */\n  dup8\n    /* \"#utility.yul\":1534:1558   */\n  add\n    /* \"#utility.yul\":1505:1568   */\n  tag_37\n  jump\t// in\ntag_59:\n    /* \"#utility.yul\":1495:1568   */\n  swap3\n  pop\n  pop\n    /* \"#utility.yul\":1608:1610   */\n  0x40\n    /* \"#utility.yul\":1597:1606   */\n  dup5\n    /* \"#utility.yul\":1593:1611   */\n  add\n    /* \"#utility.yul\":1587:1612   */\n  mload\n    /* \"#utility.yul\":1577:1612   */\n  swap1\n  pop\n    /* \"#utility.yul\":995:1618   */\n  swap3\n  pop\n  swap3\n  pop\n  swap3\n  jump\t// out\n    /* \"#utility.yul\":1623:2003   */\ntag_38:\n    /* \"#utility.yul\":1702:1703   */\n  0x01\n    /* \"#utility.yul\":1698:1710   */\n  dup2\n  dup2\n  shr\n  swap1\n    /* \"#utility.yul\":1745:1757   */\n  dup3\n  and\n  dup1\n    /* \"#utility.yul\":1766:1827   */\n  tag_61\n  jumpi\n    /* \"#utility.yul\":1820:1824   */\n  0x7f\n    /* \"#utility.yul\":1812:1818   */\n  dup3\n    /* \"#utility.yul\":1808:1825   */\n  and\n    /* \"#utility.yul\":1798:1825   */\n  swap2\n  pop\n    /* \"#utility.yul\":1766:1827   */\ntag_61:\n    /* \"#utility.yul\":1873:1875   */\n  0x20\n    /* \"#utility.yul\":1865:1871   */\n  dup3\n    /* \"#utility.yul\":1862:1876   */\n  lt\n    /* \"#utility.yul\":1842:1860   */\n  dup2\n    /* \"#utility.yul\":1839:1877   */\n  sub\n    /* \"#utility.yul\":1836:1997   */\n  tag_62\n  jumpi\n    /* \"#utility.yul\":1919:1929   */\n  0x4e487b71\n    /* \"#utility.yul\":1914:1917   */\n  0xe0\n    /* \"#utility.yul\":1910:1930   */\n  shl\n    /* \"#utility.yul\":1907:1908   */\n  0x00\n    /* \"#utility.yul\":1900:1931   */\n  mstore\n    /* \"#utility.yul\":1954:1958   */\n  0x22\n    /* \"#utility.yul\":1951:1952   */\n  0x04\n    /* \"#utility.yul\":1944:1959   */\n  mstore\n    /* \"#utility.yul\":1982:1986   */\n  0x24\n    /* \"#utility.yul\":1979:1980   */\n  0x00\n    /* \"#utility.yul\":1972:1987   */\n  revert\n    /* \"#utility.yul\":1836:1997   */\ntag_62:\n  pop\n    /* \"#utility.yul\":1623:2003   */\n  swap2\n  swap1\n  pop\n  jump\t// out\n    /* \"#utility.yul\":2134:2652   */\ntag_40:\n    /* \"#utility.yul\":2236:2238   */\n  0x1f\n    /* \"#utility.yul\":2231:2234   */\n  dup3\n    /* \"#utility.yul\":2228:2239   */\n  gt\n    /* \"#utility.yul\":2225:2646   */\n  iszero\n  tag_26\n  jumpi\n    /* \"#utility.yul\":2272:2277   */\n  dup1\n    /* \"#utility.yul\":2269:2270   */\n  0x00\n    /* \"#utility.yul\":2262:2278   */\n  mstore\n    /* \"#utility.yul\":2316:2320   */\n  0x20\n    /* \"#utility.yul\":2313:2314   */\n  0x00\n    /* \"#utility.yul\":2303:2321   */\n  keccak256\n    /* \"#utility.yul\":2386:2388   */\n  0x1f\n    /* \"#utility.yul\":2374:2384   */\n  dup5\n    /* \"#utility.yul\":2370:2389   */\n  add\n    /* \"#utility.yul\":2367:2368   */\n  0x05\n    /* \"#utility.yul\":2363:2390   */\n  shr\n    /* \"#utility.yul\":2357:2361   */\n  dup2\n    /* \"#utility.yul\":2353:2391   */\n  add\n    /* \"#utility.yul\":2422:2426   */\n  0x20\n    /* \"#utility.yul\":2410:2420   */\n  dup6\n    /* \"#utility.yul\":2407:2427   */\n  lt\n    /* \"#utility.yul\":2404:2451   */\n  iszero\n  tag_66\n  jumpi\n  pop\n    /* \"#utility.yul\":2445:2449   */\n  dup1\n    /* \"#utility.yul\":2404:2451   */\ntag_66:\n    /* \"#utility.yul\":2500:2502   */\n  0x1f\n    /* \"#utility.yul\":2495:2498   */\n  dup5\n    /* \"#utility.yul\":2491:2503   */\n  add\n    /* \"#utility.yul\":2488:2489   */\n  0x05\n    /* \"#utility.yul\":2484:2504   */\n  shr\n    /* \"#utility.yul\":2478:2482   */\n  dup3\n    /* \"#utility.yul\":2474:2505   */\n  add\n    /* \"#utility.yul\":2464:2505   */\n  swap2\n  pop\n    /* \"#utility.yul\":2555:2636   */\ntag_67:\n    /* \"#utility.yul\":2573:2575   */\n  dup2\n    /* \"#utility.yul\":2566:2571   */\n  dup2\n    /* \"#utility.yul\":2563:2576   */\n  lt\n    /* \"#utility.yul\":2555:2636   */\n  iszero\n  tag_69\n  jumpi\n    /* \"#utility.yul\":2632:2633   */\n  0x00\n    /* \"#utility.yul\":2618:2634   */\n  dup2\n  sstore\n    /* \"#utility.yul\":2599:2600   */\n  0x01\n    /* \"#utility.yul\":2588:2601   */\n  add\n    /* \"#utility.yul\":2555:2636   */\n  jump(tag_67)\ntag_69:\n    /* \"#utility.yul\":2559:2562   */\n  pop\n  pop\n    /* \"#utility.yul\":2134:2652   */\n  pop\n  pop\n  pop\n  jump\t// out\n    /* \"#utility.yul\":2828:4173   */\ntag_8:\n    /* \"#utility.yul\":2948:2958   */\n  dup2\n  mload\n  sub(shl(0x40, 0x01), 0x01)\n    /* \"#utility.yul\":2970:3000   */\n  dup2\n  gt\n    /* \"#utility.yul\":2967:3023   */\n  iszero\n  tag_73\n  jumpi\n    /* \"#utility.yul\":3003:3021   */\n  tag_73\n  tag_36\n  jump\t// in\ntag_73:\n    /* \"#utility.yul\":3032:3129   */\n  tag_74\n    /* \"#utility.yul\":3122:3128   */\n  dup2\n    /* \"#utility.yul\":3082:3120   */\n  tag_75\n    /* \"#utility.yul\":3114:3118   */\n  dup5\n    /* \"#utility.yul\":3108:3119   */\n  sload\n    /* \"#utility.yul\":3082:3120   */\n  tag_38\n  jump\t// in\ntag_75:\n    /* \"#utility.yul\":3076:3080   */\n  dup5\n    /* \"#utility.yul\":3032:3129   */\n  tag_40\n  jump\t// in\ntag_74:\n    /* \"#utility.yul\":3184:3188   */\n  0x20\n  dup1\n    /* \"#utility.yul\":3241:3243   */\n  0x1f\n    /* \"#utility.yul\":3230:3244   */\n  dup4\n  gt\n    /* \"#utility.yul\":3258:3259   */\n  0x01\n    /* \"#utility.yul\":3253:3916   */\n  dup2\n  eq\n  tag_77\n  jumpi\n    /* \"#utility.yul\":3960:3961   */\n  0x00\n    /* \"#utility.yul\":3977:3983   */\n  dup5\n    /* \"#utility.yul\":3974:4063   */\n  iszero\n  tag_78\n  jumpi\n  pop\n    /* \"#utility.yul\":4029:4048   */\n  dup6\n  dup4\n  add\n    /* \"#utility.yul\":4023:4049   */\n  mload\n    /* \"#utility.yul\":3974:4063   */\ntag_78:\n  not(0x00)\n    /* \"#utility.yul\":2785:2786   */\n  0x03\n    /* \"#utility.yul\":2781:2792   */\n  dup7\n  swap1\n  shl\n    /* \"#utility.yul\":2777:2801   */\n  shr\n    /* \"#utility.yul\":2773:2802   */\n  not\n    /* \"#utility.yul\":2763:2803   */\n  and\n    /* \"#utility.yul\":2809:2810   */\n  0x01\n    /* \"#utility.yul\":2805:2816   */\n  dup6\n  swap1\n  shl\n    /* \"#utility.yul\":2760:2817   */\n  or\n    /* \"#utility.yul\":4076:4157   */\n  dup6\n  sstore\n    /* \"#utility.yul\":3223:4167   */\n  jump(tag_76)\n    /* \"#utility.yul\":3253:3916   */\ntag_77:\n    /* \"#utility.yul\":2081:2082   */\n  0x00\n    /* \"#utility.yul\":2074:2088   */\n  dup6\n  dup2\n  mstore\n    /* \"#utility.yul\":2118:2122   */\n  0x20\n    /* \"#utility.yul\":2105:2123   */\n  dup2\n  keccak256\n  not(0x1f)\n    /* \"#utility.yul\":3289:3309   */\n  dup7\n  and\n  swap2\n    /* \"#utility.yul\":3407:3643   */\ntag_81:\n    /* \"#utility.yul\":3421:3428   */\n  dup3\n    /* \"#utility.yul\":3418:3419   */\n  dup2\n    /* \"#utility.yul\":3415:3429   */\n  lt\n    /* \"#utility.yul\":3407:3643   */\n  iszero\n  tag_83\n  jumpi\n    /* \"#utility.yul\":3510:3529   */\n  dup9\n  dup7\n  add\n    /* \"#utility.yul\":3504:3530   */\n  mload\n    /* \"#utility.yul\":3489:3531   */\n  dup3\n  sstore\n    /* \"#utility.yul\":3602:3629   */\n  swap5\n  dup5\n  add\n  swap5\n    /* \"#utility.yul\":3570:3571   */\n  0x01\n    /* \"#utility.yul\":3558:3572   */\n  swap1\n  swap2\n  add\n  swap1\n    /* \"#utility.yul\":3437:3456   */\n  dup5\n  add\n    /* \"#utility.yul\":3407:3643   */\n  jump(tag_81)\ntag_83:\n    /* \"#utility.yul\":3411:3414   */\n  pop\n    /* \"#utility.yul\":3671:3677   */\n  dup6\n    /* \"#utility.yul\":3662:3669   */\n  dup3\n    /* \"#utility.yul\":3659:3678   */\n  lt\n    /* \"#utility.yul\":3656:3857   */\n  iszero\n  tag_84\n  jumpi\n    /* \"#utility.yul\":3732:3751   */\n  dup8\n  dup6\n  add\n    /* \"#utility.yul\":3726:3752   */\n  mload\n  not(0x00)\n    /* \"#utility.yul\":3815:3816   */\n  0x03\n    /* \"#utility.yul\":3811:3825   */\n  dup9\n  swap1\n  shl\n    /* \"#utility.yul\":3827:3830   */\n  0xf8\n    /* \"#utility.yul\":3807:3831   */\n  and\n    /* \"#utility.yul\":3803:3840   */\n  shr\n    /* \"#utility.yul\":3799:3841   */\n  not\n    /* \"#utility.yul\":3784:3842   */\n  and\n    /* \"#utility.yul\":3769:3843   */\n  dup2\n  sstore\n    /* \"#utility.yul\":3656:3857   */\ntag_84:\n  pop\n  pop\n    /* \"#utility.yul\":3903:3904   */\n  0x01\n    /* \"#utility.yul\":3894:3900   */\n  dup5\n    /* \"#utility.yul\":3891:3892   */\n  0x01\n    /* \"#utility.yul\":3887:3901   */\n  shl\n    /* \"#utility.yul\":3883:3905   */\n  add\n    /* \"#utility.yul\":3877:3881   */\n  dup6\n    /* \"#utility.yul\":3870:3906   */\n  sstore\n    /* \"#utility.yul\":3223:4167   */\ntag_76:\n  pop\n  pop\n  pop\n  pop\n    /* \"#utility.yul\":2828:4173   */\n  pop\n  pop\n  jump\t// out\n    /* \"#utility.yul\":4538:4760   */\ntag_28:\n    /* \"#utility.yul\":4603:4612   */\n  dup1\n  dup3\n  add\n    /* \"#utility.yul\":4624:4634   */\n  dup1\n  dup3\n  gt\n    /* \"#utility.yul\":4621:4754   */\n  iszero\n  tag_87\n  jumpi\n    /* \"#utility.yul\":4676:4686   */\n  0x4e487b71\n    /* \"#utility.yul\":4671:4674   */\n  0xe0\n    /* \"#utility.yul\":4667:4687   */\n  shl\n    /* \"#utility.yul\":4664:4665   */\n  0x00\n    /* \"#utility.yul\":4657:4688   */\n  mstore\n    /* \"#utility.yul\":4711:4715   */\n  0x11\n    /* \"#utility.yul\":4708:4709   */\n  0x04\n    /* \"#utility.yul\":4701:4716   */\n  mstore\n    /* \"#utility.yul\":4739:4743   */\n  0x24\n    /* \"#utility.yul\":4736:4737   */\n  0x00\n    /* \"#utility.yul\":4729:4744   */\n  revert\n    /* \"#utility.yul\":4621:4754   */\ntag_87:\n    /* \"#utility.yul\":4538:4760   */\n  swap3\n  swap2\n  pop\n  pop\n  jump\t// out\n    /* \"#utility.yul\":4765:4942   */\ntag_42:\n    /* \"mintable-token/mintable-token.sol\":671:1272  contract FREE is ERC20, Ownable {... */\n  dataSize(sub_0)\n  dup1\n  dataOffset(sub_0)\n  0x00\n  codecopy\n  0x00\n  return\nstop\n\nsub_0: assembly {\n        /* \"mintable-token/mintable-token.sol\":671:1272  contract FREE is ERC20, Ownable {... */\n      mstore(0x40, 0x80)\n      callvalue\n      dup1\n      iszero\n      tag_1\n      jumpi\n      0x00\n      dup1\n      revert\n    tag_1:\n      pop\n      jumpi(tag_2, lt(calldatasize, 0x04))\n      shr(0xe0, calldataload(0x00))\n      dup1\n      0x715018a6\n      gt\n      tag_18\n      jumpi\n      dup1\n      0xa457c2d7\n      gt\n      tag_19\n      jumpi\n      dup1\n      0xa457c2d7\n      eq\n      tag_14\n      jumpi\n      dup1\n      0xa9059cbb\n      eq\n      tag_15\n      jumpi\n      dup1\n      0xdd62ed3e\n      eq\n      tag_16\n      jumpi\n      dup1\n      0xf2fde38b\n      eq\n      tag_17\n      jumpi\n      0x00\n      dup1\n      revert\n    tag_19:\n      dup1\n      0x715018a6\n      eq\n      tag_10\n      jumpi\n      dup1\n      0x8da5cb5b\n      eq\n      tag_11\n      jumpi\n      dup1\n      0x94bf804d\n      eq\n      tag_12\n      jumpi\n      dup1\n      0x95d89b41\n      eq\n      tag_13\n      jumpi\n      0x00\n      dup1\n      revert\n    tag_18:\n      dup1\n      0x23b872dd\n      gt\n      tag_20\n      jumpi\n      dup1\n      0x23b872dd\n      eq\n      tag_6\n      jumpi\n      dup1\n      0x313ce567\n      eq\n      tag_7\n      jumpi\n      dup1\n      0x39509351\n      eq\n      tag_8\n      jumpi\n      dup1\n      0x70a08231\n      eq\n      tag_9\n      jumpi\n      0x00\n      dup1\n      revert\n    tag_20:\n      dup1\n      0x06fdde03\n      eq\n      tag_3\n      jumpi\n      dup1\n      0x095ea7b3\n      eq\n      tag_4\n      jumpi\n      dup1\n      0x18160ddd\n      eq\n      tag_5\n      jumpi\n    tag_2:\n      0x00\n      dup1\n      revert\n        /* \"mintable-token/@openzeppelin/contracts/token/ERC20/ERC20.sol\":2156:2254  function name() public view virtual override returns (string memory) {... */\n    tag_3:\n      tag_21\n      tag_22\n      jump\t// in\n    tag_21:\n      mload(0x40)\n      tag_23\n      swap2\n      swap1\n      tag_24\n      jump\t// in\n    tag_23:\n      mload(0x40)\n      dup1\n      swap2\n      sub\n      swap1\n      return\n        /* \"mintable-token/@openzeppelin/contracts/token/ERC20/ERC20.sol\":4433:4630  function approve(address spender, uint256 amount) public virtual override returns (bool) {... */\n    tag_4:\n      tag_25\n      tag_26\n      calldatasize\n      0x04\n      tag_27\n      jump\t// in\n    tag_26:\n      tag_28\n      jump\t// in\n    tag_25:\n      mload(0x40)\n        /* \"#utility.yul\":1169:1183   */\n      swap1\n      iszero\n        /* \"#utility.yul\":1162:1184   */\n      iszero\n        /* \"#utility.yul\":1144:1185   */\n      dup2\n      mstore\n        /* \"#utility.yul\":1132:1134   */\n      0x20\n        /* \"#utility.yul\":1117:1135   */\n      add\n        /* \"mintable-token/@openzeppelin/contracts/token/ERC20/ERC20.sol\":4433:4630  function approve(address spender, uint256 amount) public virtual override returns (bool) {... */\n      tag_23\n        /* \"#utility.yul\":1004:1191   */\n      jump\n        /* \"mintable-token/@openzeppelin/contracts/token/ERC20/ERC20.sol\":3244:3350  function totalSupply() public view virtual override returns (uint256) {... */\n    tag_5:\n        /* \"mintable-token/@openzeppelin/contracts/token/ERC20/ERC20.sol\":3331:3343  _totalSupply */\n      sload(0x02)\n        /* \"mintable-token/@openzeppelin/contracts/token/ERC20/ERC20.sol\":3244:3350  function totalSupply() public view virtual override returns (uint256) {... */\n    tag_31:\n      mload(0x40)\n        /* \"#utility.yul\":1342:1367   */\n      swap1\n      dup2\n      mstore\n        /* \"#utility.yul\":1330:1332   */\n      0x20\n        /* \"#utility.yul\":1315:1333   */\n      add\n        /* \"mintable-token/@openzeppelin/contracts/token/ERC20/ERC20.sol\":3244:3350  function totalSupply() public view virtual override returns (uint256) {... */\n      tag_23\n        /* \"#utility.yul\":1196:1373   */\n      jump\n        /* \"mintable-token/@openzeppelin/contracts/token/ERC20/ERC20.sol\":5192:5478  function transferFrom(... */\n    tag_6:\n      tag_25\n      tag_36\n      calldatasize\n      0x04\n      tag_37\n      jump\t// in\n    tag_36:\n      tag_38\n      jump\t// in\n        /* \"mintable-token/@openzeppelin/contracts/token/ERC20/ERC20.sol\":3093:3184  function decimals() public view virtual override returns (uint8) {... */\n    tag_7:\n      mload(0x40)\n        /* \"mintable-token/@openzeppelin/contracts/token/ERC20/ERC20.sol\":3175:3177  18 */\n      0x12\n        /* \"#utility.yul\":1853:1889   */\n      dup2\n      mstore\n        /* \"#utility.yul\":1841:1843   */\n      0x20\n        /* \"#utility.yul\":1826:1844   */\n      add\n        /* \"mintable-token/@openzeppelin/contracts/token/ERC20/ERC20.sol\":3093:3184  function decimals() public view virtual override returns (uint8) {... */\n      tag_23\n        /* \"#utility.yul\":1711:1895   */\n      jump\n        /* \"mintable-token/@openzeppelin/contracts/token/ERC20/ERC20.sol\":5873:6107  function increaseAllowance(address spender, uint256 addedValue) public virtual returns (bool) {... */\n    tag_8:\n      tag_25\n      tag_45\n      calldatasize\n      0x04\n      tag_27\n      jump\t// in\n    tag_45:\n      tag_46\n      jump\t// in\n        /* \"mintable-token/@openzeppelin/contracts/token/ERC20/ERC20.sol\":3408:3533  function balanceOf(address account) public view virtual override returns (uint256) {... */\n    tag_9:\n      tag_31\n      tag_49\n      calldatasize\n      0x04\n      tag_50\n      jump\t// in\n    tag_49:\n      sub(shl(0xa0, 0x01), 0x01)\n        /* \"mintable-token/@openzeppelin/contracts/token/ERC20/ERC20.sol\":3508:3526  _balances[account] */\n      and\n        /* \"mintable-token/@openzeppelin/contracts/token/ERC20/ERC20.sol\":3482:3489  uint256 */\n      0x00\n        /* \"mintable-token/@openzeppelin/contracts/token/ERC20/ERC20.sol\":3508:3526  _balances[account] */\n      swap1\n      dup2\n      mstore\n      0x20\n      dup2\n      swap1\n      mstore\n      0x40\n      swap1\n      keccak256\n      sload\n      swap1\n        /* \"mintable-token/@openzeppelin/contracts/token/ERC20/ERC20.sol\":3408:3533  function balanceOf(address account) public view virtual override returns (uint256) {... */\n      jump\n        /* \"mintable-token/@openzeppelin/contracts/access/Ownable.sol\":1831:1932  function renounceOwnership() public virtual onlyOwner {... */\n    tag_10:\n      tag_53\n      tag_54\n      jump\t// in\n    tag_53:\n      stop\n        /* \"mintable-token/@openzeppelin/contracts/access/Ownable.sol\":1201:1286  function owner() public view virtual returns (address) {... */\n    tag_11:\n        /* \"mintable-token/@openzeppelin/contracts/access/Ownable.sol\":1273:1279  _owner */\n      sload(0x05)\n        /* \"mintable-token/@openzeppelin/contracts/access/Ownable.sol\":1201:1286  function owner() public view virtual returns (address) {... */\n      mload(0x40)\n      sub(shl(0xa0, 0x01), 0x01)\n        /* \"mintable-token/@openzeppelin/contracts/access/Ownable.sol\":1273:1279  _owner */\n      swap1\n      swap2\n      and\n        /* \"#utility.yul\":2237:2288   */\n      dup2\n      mstore\n        /* \"#utility.yul\":2225:2227   */\n      0x20\n        /* \"#utility.yul\":2210:2228   */\n      add\n        /* \"mintable-token/@openzeppelin/contracts/access/Ownable.sol\":1201:1286  function owner() public view virtual returns (address) {... */\n      tag_23\n        /* \"#utility.yul\":2091:2294   */\n      jump\n        /* \"mintable-token/mintable-token.sol\":1175:1270  function mint(uint256 amount, address to) external onlyOwner {... */\n    tag_12:\n      tag_53\n      tag_60\n      calldatasize\n      0x04\n      tag_61\n      jump\t// in\n    tag_60:\n      tag_62\n      jump\t// in\n        /* \"mintable-token/@openzeppelin/contracts/token/ERC20/ERC20.sol\":2367:2469  function symbol() public view virtual override returns (string memory) {... */\n    tag_13:\n      tag_21\n      tag_64\n      jump\t// in\n        /* \"mintable-token/@openzeppelin/contracts/token/ERC20/ERC20.sol\":6594:7021  function decreaseAllowance(address spender, uint256 subtractedValue) public virtual returns (bool) {... */\n    tag_14:\n      tag_25\n      tag_67\n      calldatasize\n      0x04\n      tag_27\n      jump\t// in\n    tag_67:\n      tag_68\n      jump\t// in\n        /* \"mintable-token/@openzeppelin/contracts/token/ERC20/ERC20.sol\":3729:3918  function transfer(address to, uint256 amount) public virtual override returns (bool) {... */\n    tag_15:\n      tag_25\n      tag_71\n      calldatasize\n      0x04\n      tag_27\n      jump\t// in\n    tag_71:\n      tag_72\n      jump\t// in\n        /* \"mintable-token/@openzeppelin/contracts/token/ERC20/ERC20.sol\":3976:4125  function allowance(address owner, address spender) public view virtual override returns (uint256) {... */\n    tag_16:\n      tag_31\n      tag_75\n      calldatasize\n      0x04\n      tag_76\n      jump\t// in\n    tag_75:\n      tag_77\n      jump\t// in\n        /* \"mintable-token/@openzeppelin/contracts/access/Ownable.sol\":2081:2279  function transferOwnership(address newOwner) public virtual onlyOwner {... */\n    tag_17:\n      tag_53\n      tag_80\n      calldatasize\n      0x04\n      tag_50\n      jump\t// in\n    tag_80:\n      tag_81\n      jump\t// in\n        /* \"mintable-token/@openzeppelin/contracts/token/ERC20/ERC20.sol\":2156:2254  function name() public view virtual override returns (string memory) {... */\n    tag_22:\n        /* \"mintable-token/@openzeppelin/contracts/token/ERC20/ERC20.sol\":2210:2223  string memory */\n      0x60\n        /* \"mintable-token/@openzeppelin/contracts/token/ERC20/ERC20.sol\":2242:2247  _name */\n      0x03\n        /* \"mintable-token/@openzeppelin/contracts/token/ERC20/ERC20.sol\":2235:2247  return _name */\n      dup1\n      sload\n      tag_83\n      swap1\n      tag_84\n      jump\t// in\n    tag_83:\n      dup1\n      0x1f\n      add\n      0x20\n      dup1\n      swap2\n      div\n      mul\n      0x20\n      add\n      mload(0x40)\n      swap1\n      dup2\n      add\n      0x40\n      mstore\n      dup1\n      swap3\n      swap2\n      swap1\n      dup2\n      dup2\n      mstore\n      0x20\n      add\n      dup3\n      dup1\n      sload\n      tag_85\n      swap1\n      tag_84\n      jump\t// in\n    tag_85:\n      dup1\n      iszero\n      tag_86\n      jumpi\n      dup1\n      0x1f\n      lt\n      tag_87\n      jumpi\n      0x0100\n      dup1\n      dup4\n      sload\n      div\n      mul\n      dup4\n      mstore\n      swap2\n      0x20\n      add\n      swap2\n      jump(tag_86)\n    tag_87:\n      dup3\n      add\n      swap2\n      swap1\n      0x00\n      mstore\n      keccak256(0x00, 0x20)\n      swap1\n    tag_88:\n      dup2\n      sload\n      dup2\n      mstore\n      swap1\n      0x01\n      add\n      swap1\n      0x20\n      add\n      dup1\n      dup4\n      gt\n      tag_88\n      jumpi\n      dup3\n      swap1\n      sub\n      0x1f\n      and\n      dup3\n      add\n      swap2\n    tag_86:\n      pop\n      pop\n      pop\n      pop\n      pop\n      swap1\n      pop\n        /* \"mintable-token/@openzeppelin/contracts/token/ERC20/ERC20.sol\":2156:2254  function name() public view virtual override returns (string memory) {... */\n      swap1\n      jump\t// out\n        /* \"mintable-token/@openzeppelin/contracts/token/ERC20/ERC20.sol\":4433:4630  function approve(address spender, uint256 amount) public virtual override returns (bool) {... */\n    tag_28:\n        /* \"mintable-token/@openzeppelin/contracts/token/ERC20/ERC20.sol\":4516:4520  bool */\n      0x00\n        /* \"mintable-token/@openzeppelin/contracts/utils/Context.sol\":719:729  msg.sender */\n      caller\n        /* \"mintable-token/@openzeppelin/contracts/token/ERC20/ERC20.sol\":4570:4602  _approve(owner, spender, amount) */\n      tag_92\n        /* \"mintable-token/@openzeppelin/contracts/utils/Context.sol\":719:729  msg.sender */\n      dup2\n        /* \"mintable-token/@openzeppelin/contracts/token/ERC20/ERC20.sol\":4586:4593  spender */\n      dup6\n        /* \"mintable-token/@openzeppelin/contracts/token/ERC20/ERC20.sol\":4595:4601  amount */\n      dup6\n        /* \"mintable-token/@openzeppelin/contracts/token/ERC20/ERC20.sol\":4570:4578  _approve */\n      tag_93\n        /* \"mintable-token/@openzeppelin/contracts/token/ERC20/ERC20.sol\":4570:4602  _approve(owner, spender, amount) */\n      jump\t// in\n    tag_92:\n        /* \"mintable-token/@openzeppelin/contracts/token/ERC20/ERC20.sol\":4619:4623  true */\n      0x01\n        /* \"mintable-token/@openzeppelin/contracts/token/ERC20/ERC20.sol\":4612:4623  return true */\n      swap2\n      pop\n      pop\n        /* \"mintable-token/@openzeppelin/contracts/token/ERC20/ERC20.sol\":4433:4630  function approve(address spender, uint256 amount) public virtual override returns (bool) {... */\n    tag_89:\n      swap3\n      swap2\n      pop\n      pop\n      jump\t// out\n        /* \"mintable-token/@openzeppelin/contracts/token/ERC20/ERC20.sol\":5192:5478  function transferFrom(... */\n    tag_38:\n        /* \"mintable-token/@openzeppelin/contracts/token/ERC20/ERC20.sol\":5319:5323  bool */\n      0x00\n        /* \"mintable-token/@openzeppelin/contracts/utils/Context.sol\":719:729  msg.sender */\n      caller\n        /* \"mintable-token/@openzeppelin/contracts/token/ERC20/ERC20.sol\":5375:5413  _spendAllowance(from, spender, amount) */\n      tag_97\n        /* \"mintable-token/@openzeppelin/contracts/token/ERC20/ERC20.sol\":5391:5395  from */\n      dup6\n        /* \"mintable-token/@openzeppelin/contracts/utils/Context.sol\":719:729  msg.sender */\n      dup3\n        /* \"mintable-token/@openzeppelin/contracts/token/ERC20/ERC20.sol\":5406:5412  amount */\n      dup6\n        /* \"mintable-token/@openzeppelin/contracts/token/ERC20/ERC20.sol\":5375:5390  _spendAllowance */\n      tag_98\n        /* \"mintable-token/@openzeppelin/contracts/token/ERC20/ERC20.sol\":5375:5413  _spendAllowance(from, spender, amount) */\n      jump\t// in\n    tag_97:\n        /* \"mintable-token/@openzeppelin/contracts/token/ERC20/ERC20.sol\":5423:5450  _transfer(from, to, amount) */\n      tag_99\n        /* \"mintable-token/@openzeppelin/contracts/token/ERC20/ERC20.sol\":5433:5437  from */\n      dup6\n        /* \"mintable-token/@openzeppelin/contracts/token/ERC20/ERC20.sol\":5439:5441  to */\n      dup6\n        /* \"mintable-token/@openzeppelin/contracts/token/ERC20/ERC20.sol\":5443:5449  amount */\n      dup6\n        /* \"mintable-token/@openzeppelin/contracts/token/ERC20/ERC20.sol\":5423:5432  _transfer */\n      tag_100\n        /* \"mintable-token/@openzeppelin/contracts/token/ERC20/ERC20.sol\":5423:5450  _transfer(from, to, amount) */\n      jump\t// in\n    tag_99:\n      pop\n        /* \"mintable-token/@openzeppelin/contracts/token/ERC20/ERC20.sol\":5467:5471  true */\n      0x01\n      swap5\n        /* \"mintable-token/@openzeppelin/contracts/token/ERC20/ERC20.sol\":5192:5478  function transferFrom(... */\n      swap4\n      pop\n      pop\n      pop\n      pop\n      jump\t// out\n        /* \"mintable-token/@openzeppelin/contracts/token/ERC20/ERC20.sol\":5873:6107  function increaseAllowance(address spender, uint256 addedValue) public virtual returns (bool) {... */\n    tag_46:\n        /* \"mintable-token/@openzeppelin/contracts/token/ERC20/ERC20.sol\":5961:5965  bool */\n      0x00\n        /* \"mintable-token/@openzeppelin/contracts/utils/Context.sol\":719:729  msg.sender */\n      caller\n        /* \"mintable-token/@openzeppelin/contracts/token/ERC20/ERC20.sol\":6015:6079  _approve(owner, spender, allowance(owner, spender) + addedValue) */\n      tag_92\n        /* \"mintable-token/@openzeppelin/contracts/utils/Context.sol\":719:729  msg.sender */\n      dup2\n        /* \"mintable-token/@openzeppelin/contracts/token/ERC20/ERC20.sol\":6031:6038  spender */\n      dup6\n        /* \"mintable-token/@openzeppelin/contracts/token/ERC20/ERC20.sol\":6068:6078  addedValue */\n      dup6\n        /* \"mintable-token/@openzeppelin/contracts/token/ERC20/ERC20.sol\":6040:6065  allowance(owner, spender) */\n      tag_105\n        /* \"mintable-token/@openzeppelin/contracts/utils/Context.sol\":719:729  msg.sender */\n      dup4\n        /* \"mintable-token/@openzeppelin/contracts/token/ERC20/ERC20.sol\":6031:6038  spender */\n      dup4\n        /* \"mintable-token/@openzeppelin/contracts/token/ERC20/ERC20.sol\":6040:6049  allowance */\n      tag_77\n        /* \"mintable-token/@openzeppelin/contracts/token/ERC20/ERC20.sol\":6040:6065  allowance(owner, spender) */\n      jump\t// in\n    tag_105:\n        /* \"mintable-token/@openzeppelin/contracts/token/ERC20/ERC20.sol\":6040:6078  allowance(owner, spender) + addedValue */\n      tag_106\n      swap2\n      swap1\n      tag_107\n      jump\t// in\n    tag_106:\n        /* \"mintable-token/@openzeppelin/contracts/token/ERC20/ERC20.sol\":6015:6023  _approve */\n      tag_93\n        /* \"mintable-token/@openzeppelin/contracts/token/ERC20/ERC20.sol\":6015:6079  _approve(owner, spender, allowance(owner, spender) + addedValue) */\n      jump\t// in\n        /* \"mintable-token/@openzeppelin/contracts/access/Ownable.sol\":1831:1932  function renounceOwnership() public virtual onlyOwner {... */\n    tag_54:\n        /* \"mintable-token/@openzeppelin/contracts/access/Ownable.sol\":1094:1107  _checkOwner() */\n      tag_110\n        /* \"mintable-token/@openzeppelin/contracts/access/Ownable.sol\":1094:1105  _checkOwner */\n      tag_111\n        /* \"mintable-token/@openzeppelin/contracts/access/Ownable.sol\":1094:1107  _checkOwner() */\n      jump\t// in\n    tag_110:\n        /* \"mintable-token/@openzeppelin/contracts/access/Ownable.sol\":1895:1925  _transferOwnership(address(0)) */\n      tag_113\n        /* \"mintable-token/@openzeppelin/contracts/access/Ownable.sol\":1922:1923  0 */\n      0x00\n        /* \"mintable-token/@openzeppelin/contracts/access/Ownable.sol\":1895:1913  _transferOwnership */\n      tag_114\n        /* \"mintable-token/@openzeppelin/contracts/access/Ownable.sol\":1895:1925  _transferOwnership(address(0)) */\n      jump\t// in\n    tag_113:\n        /* \"mintable-token/@openzeppelin/contracts/access/Ownable.sol\":1831:1932  function renounceOwnership() public virtual onlyOwner {... */\n      jump\t// out\n        /* \"mintable-token/mintable-token.sol\":1175:1270  function mint(uint256 amount, address to) external onlyOwner {... */\n    tag_62:\n        /* \"mintable-token/@openzeppelin/contracts/access/Ownable.sol\":1094:1107  _checkOwner() */\n      tag_117\n        /* \"mintable-token/@openzeppelin/contracts/access/Ownable.sol\":1094:1105  _checkOwner */\n      tag_111\n        /* \"mintable-token/@openzeppelin/contracts/access/Ownable.sol\":1094:1107  _checkOwner() */\n      jump\t// in\n    tag_117:\n        /* \"mintable-token/mintable-token.sol\":1246:1263  _mint(to, amount) */\n      tag_119\n        /* \"mintable-token/mintable-token.sol\":1252:1254  to */\n      dup2\n        /* \"mintable-token/mintable-token.sol\":1256:1262  amount */\n      dup4\n        /* \"mintable-token/mintable-token.sol\":1246:1251  _mint */\n      tag_120\n        /* \"mintable-token/mintable-token.sol\":1246:1263  _mint(to, amount) */\n      jump\t// in\n    tag_119:\n        /* \"mintable-token/mintable-token.sol\":1175:1270  function mint(uint256 amount, address to) external onlyOwner {... */\n      pop\n      pop\n      jump\t// out\n        /* \"mintable-token/@openzeppelin/contracts/token/ERC20/ERC20.sol\":2367:2469  function symbol() public view virtual override returns (string memory) {... */\n    tag_64:\n        /* \"mintable-token/@openzeppelin/contracts/token/ERC20/ERC20.sol\":2423:2436  string memory */\n      0x60\n        /* \"mintable-token/@openzeppelin/contracts/token/ERC20/ERC20.sol\":2455:2462  _symbol */\n      0x04\n        /* \"mintable-token/@openzeppelin/contracts/token/ERC20/ERC20.sol\":2448:2462  return _symbol */\n      dup1\n      sload\n      tag_83\n      swap1\n      tag_84\n      jump\t// in\n        /* \"mintable-token/@openzeppelin/contracts/token/ERC20/ERC20.sol\":6594:7021  function decreaseAllowance(address spender, uint256 subtractedValue) public virtual returns (bool) {... */\n    tag_68:\n        /* \"mintable-token/@openzeppelin/contracts/token/ERC20/ERC20.sol\":6687:6691  bool */\n      0x00\n        /* \"mintable-token/@openzeppelin/contracts/utils/Context.sol\":719:729  msg.sender */\n      caller\n        /* \"mintable-token/@openzeppelin/contracts/token/ERC20/ERC20.sol\":6687:6691  bool */\n      dup2\n        /* \"mintable-token/@openzeppelin/contracts/token/ERC20/ERC20.sol\":6768:6793  allowance(owner, spender) */\n      tag_129\n        /* \"mintable-token/@openzeppelin/contracts/utils/Context.sol\":719:729  msg.sender */\n      dup3\n        /* \"mintable-token/@openzeppelin/contracts/token/ERC20/ERC20.sol\":6785:6792  spender */\n      dup7\n        /* \"mintable-token/@openzeppelin/contracts/token/ERC20/ERC20.sol\":6768:6777  allowance */\n      tag_77\n        /* \"mintable-token/@openzeppelin/contracts/token/ERC20/ERC20.sol\":6768:6793  allowance(owner, spender) */\n      jump\t// in\n    tag_129:\n        /* \"mintable-token/@openzeppelin/contracts/token/ERC20/ERC20.sol\":6741:6793  uint256 currentAllowance = allowance(owner, spender) */\n      swap1\n      pop\n        /* \"mintable-token/@openzeppelin/contracts/token/ERC20/ERC20.sol\":6831:6846  subtractedValue */\n      dup4\n        /* \"mintable-token/@openzeppelin/contracts/token/ERC20/ERC20.sol\":6811:6827  currentAllowance */\n      dup2\n        /* \"mintable-token/@openzeppelin/contracts/token/ERC20/ERC20.sol\":6811:6846  currentAllowance >= subtractedValue */\n      lt\n      iszero\n        /* \"mintable-token/@openzeppelin/contracts/token/ERC20/ERC20.sol\":6803:6888  require(currentAllowance >= subtractedValue, \"ERC20: decreased allowance below zero\") */\n      tag_130\n      jumpi\n      mload(0x40)\n      shl(0xe5, 0x461bcd)\n      dup2\n      mstore\n        /* \"#utility.yul\":3637:3639   */\n      0x20\n        /* \"mintable-token/@openzeppelin/contracts/token/ERC20/ERC20.sol\":6803:6888  require(currentAllowance >= subtractedValue, \"ERC20: decreased allowance below zero\") */\n      0x04\n      dup3\n      add\n        /* \"#utility.yul\":3619:3640   */\n      mstore\n        /* \"#utility.yul\":3676:3678   */\n      0x25\n        /* \"#utility.yul\":3656:3674   */\n      0x24\n      dup3\n      add\n        /* \"#utility.yul\":3649:3679   */\n      mstore\n        /* \"#utility.yul\":3715:3749   */\n      0x45524332303a2064656372656173656420616c6c6f77616e63652062656c6f77\n        /* \"#utility.yul\":3695:3713   */\n      0x44\n      dup3\n      add\n        /* \"#utility.yul\":3688:3750   */\n      mstore\n      shl(0xd8, 0x207a65726f)\n        /* \"#utility.yul\":3766:3784   */\n      0x64\n      dup3\n      add\n        /* \"#utility.yul\":3759:3794   */\n      mstore\n        /* \"#utility.yul\":3811:3830   */\n      0x84\n      add\n        /* \"mintable-token/@openzeppelin/contracts/token/ERC20/ERC20.sol\":6803:6888  require(currentAllowance >= subtractedValue, \"ERC20: decreased allowance below zero\") */\n    tag_131:\n      mload(0x40)\n      dup1\n      swap2\n      sub\n      swap1\n      revert\n    tag_130:\n        /* \"mintable-token/@openzeppelin/contracts/token/ERC20/ERC20.sol\":6922:6982  _approve(owner, spender, currentAllowance - subtractedValue) */\n      tag_99\n        /* \"mintable-token/@openzeppelin/contracts/token/ERC20/ERC20.sol\":6931:6936  owner */\n      dup3\n        /* \"mintable-token/@openzeppelin/contracts/token/ERC20/ERC20.sol\":6938:6945  spender */\n      dup7\n        /* \"mintable-token/@openzeppelin/contracts/token/ERC20/ERC20.sol\":6966:6981  subtractedValue */\n      dup7\n        /* \"mintable-token/@openzeppelin/contracts/token/ERC20/ERC20.sol\":6947:6963  currentAllowance */\n      dup5\n        /* \"mintable-token/@openzeppelin/contracts/token/ERC20/ERC20.sol\":6947:6981  currentAllowance - subtractedValue */\n      sub\n        /* \"mintable-token/@openzeppelin/contracts/token/ERC20/ERC20.sol\":6922:6930  _approve */\n      tag_93\n        /* \"mintable-token/@openzeppelin/contracts/token/ERC20/ERC20.sol\":6922:6982  _approve(owner, spender, currentAllowance - subtractedValue) */\n      jump\t// in\n        /* \"mintable-token/@openzeppelin/contracts/token/ERC20/ERC20.sol\":3729:3918  function transfer(address to, uint256 amount) public virtual override returns (bool) {... */\n    tag_72:\n        /* \"mintable-token/@openzeppelin/contracts/token/ERC20/ERC20.sol\":3808:3812  bool */\n      0x00\n        /* \"mintable-token/@openzeppelin/contracts/utils/Context.sol\":719:729  msg.sender */\n      caller\n        /* \"mintable-token/@openzeppelin/contracts/token/ERC20/ERC20.sol\":3862:3890  _transfer(owner, to, amount) */\n      tag_92\n        /* \"mintable-token/@openzeppelin/contracts/utils/Context.sol\":719:729  msg.sender */\n      dup2\n        /* \"mintable-token/@openzeppelin/contracts/token/ERC20/ERC20.sol\":3879:3881  to */\n      dup6\n        /* \"mintable-token/@openzeppelin/contracts/token/ERC20/ERC20.sol\":3883:3889  amount */\n      dup6\n        /* \"mintable-token/@openzeppelin/contracts/token/ERC20/ERC20.sol\":3862:3871  _transfer */\n      tag_100\n        /* \"mintable-token/@openzeppelin/contracts/token/ERC20/ERC20.sol\":3862:3890  _transfer(owner, to, amount) */\n      jump\t// in\n        /* \"mintable-token/@openzeppelin/contracts/token/ERC20/ERC20.sol\":3976:4125  function allowance(address owner, address spender) public view virtual override returns (uint256) {... */\n    tag_77:\n      sub(shl(0xa0, 0x01), 0x01)\n        /* \"mintable-token/@openzeppelin/contracts/token/ERC20/ERC20.sol\":4091:4109  _allowances[owner] */\n      swap2\n      dup3\n      and\n        /* \"mintable-token/@openzeppelin/contracts/token/ERC20/ERC20.sol\":4065:4072  uint256 */\n      0x00\n        /* \"mintable-token/@openzeppelin/contracts/token/ERC20/ERC20.sol\":4091:4109  _allowances[owner] */\n      swap1\n      dup2\n      mstore\n        /* \"mintable-token/@openzeppelin/contracts/token/ERC20/ERC20.sol\":4091:4102  _allowances */\n      0x01\n        /* \"mintable-token/@openzeppelin/contracts/token/ERC20/ERC20.sol\":4091:4109  _allowances[owner] */\n      0x20\n      swap1\n      dup2\n      mstore\n      0x40\n      dup1\n      dup4\n      keccak256\n        /* \"mintable-token/@openzeppelin/contracts/token/ERC20/ERC20.sol\":4091:4118  _allowances[owner][spender] */\n      swap4\n      swap1\n      swap5\n      and\n      dup3\n      mstore\n      swap2\n      swap1\n      swap2\n      mstore\n      keccak256\n      sload\n      swap1\n        /* \"mintable-token/@openzeppelin/contracts/token/ERC20/ERC20.sol\":3976:4125  function allowance(address owner, address spender) public view virtual override returns (uint256) {... */\n      jump\t// out\n        /* \"mintable-token/@openzeppelin/contracts/access/Ownable.sol\":2081:2279  function transferOwnership(address newOwner) public virtual onlyOwner {... */\n    tag_81:\n        /* \"mintable-token/@openzeppelin/contracts/access/Ownable.sol\":1094:1107  _checkOwner() */\n      tag_139\n        /* \"mintable-token/@openzeppelin/contracts/access/Ownable.sol\":1094:1105  _checkOwner */\n      tag_111\n        /* \"mintable-token/@openzeppelin/contracts/access/Ownable.sol\":1094:1107  _checkOwner() */\n      jump\t// in\n    tag_139:\n      sub(shl(0xa0, 0x01), 0x01)\n        /* \"mintable-token/@openzeppelin/contracts/access/Ownable.sol\":2169:2191  newOwner != address(0) */\n      dup2\n      and\n        /* \"mintable-token/@openzeppelin/contracts/access/Ownable.sol\":2161:2234  require(newOwner != address(0), \"Ownable: new owner is the zero address\") */\n      tag_141\n      jumpi\n      mload(0x40)\n      shl(0xe5, 0x461bcd)\n      dup2\n      mstore\n        /* \"#utility.yul\":4043:4045   */\n      0x20\n        /* \"mintable-token/@openzeppelin/contracts/access/Ownable.sol\":2161:2234  require(newOwner != address(0), \"Ownable: new owner is the zero address\") */\n      0x04\n      dup3\n      add\n        /* \"#utility.yul\":4025:4046   */\n      mstore\n        /* \"#utility.yul\":4082:4084   */\n      0x26\n        /* \"#utility.yul\":4062:4080   */\n      0x24\n      dup3\n      add\n        /* \"#utility.yul\":4055:4085   */\n      mstore\n        /* \"#utility.yul\":4121:4155   */\n      0x4f776e61626c653a206e6577206f776e657220697320746865207a65726f2061\n        /* \"#utility.yul\":4101:4119   */\n      0x44\n      dup3\n      add\n        /* \"#utility.yul\":4094:4156   */\n      mstore\n      shl(0xd0, 0x646472657373)\n        /* \"#utility.yul\":4172:4190   */\n      0x64\n      dup3\n      add\n        /* \"#utility.yul\":4165:4201   */\n      mstore\n        /* \"#utility.yul\":4218:4237   */\n      0x84\n      add\n        /* \"mintable-token/@openzeppelin/contracts/access/Ownable.sol\":2161:2234  require(newOwner != address(0), \"Ownable: new owner is the zero address\") */\n      tag_131\n        /* \"#utility.yul\":3841:4243   */\n      jump\n        /* \"mintable-token/@openzeppelin/contracts/access/Ownable.sol\":2161:2234  require(newOwner != address(0), \"Ownable: new owner is the zero address\") */\n    tag_141:\n        /* \"mintable-token/@openzeppelin/contracts/access/Ownable.sol\":2244:2272  _transferOwnership(newOwner) */\n      tag_144\n        /* \"mintable-token/@openzeppelin/contracts/access/Ownable.sol\":2263:2271  newOwner */\n      dup2\n        /* \"mintable-token/@openzeppelin/contracts/access/Ownable.sol\":2244:2262  _transferOwnership */\n      tag_114\n        /* \"mintable-token/@openzeppelin/contracts/access/Ownable.sol\":2244:2272  _transferOwnership(newOwner) */\n      jump\t// in\n    tag_144:\n        /* \"mintable-token/@openzeppelin/contracts/access/Ownable.sol\":2081:2279  function transferOwnership(address newOwner) public virtual onlyOwner {... */\n      pop\n      jump\t// out\n        /* \"mintable-token/@openzeppelin/contracts/token/ERC20/ERC20.sol\":10110:10480  function _approve(... */\n    tag_93:\n      sub(shl(0xa0, 0x01), 0x01)\n        /* \"mintable-token/@openzeppelin/contracts/token/ERC20/ERC20.sol\":10241:10260  owner != address(0) */\n      dup4\n      and\n        /* \"mintable-token/@openzeppelin/contracts/token/ERC20/ERC20.sol\":10233:10301  require(owner != address(0), \"ERC20: approve from the zero address\") */\n      tag_147\n      jumpi\n      mload(0x40)\n      shl(0xe5, 0x461bcd)\n      dup2\n      mstore\n        /* \"#utility.yul\":4450:4452   */\n      0x20\n        /* \"mintable-token/@openzeppelin/contracts/token/ERC20/ERC20.sol\":10233:10301  require(owner != address(0), \"ERC20: approve from the zero address\") */\n      0x04\n      dup3\n      add\n        /* \"#utility.yul\":4432:4453   */\n      mstore\n        /* \"#utility.yul\":4489:4491   */\n      0x24\n        /* \"#utility.yul\":4469:4487   */\n      dup1\n      dup3\n      add\n        /* \"#utility.yul\":4462:4492   */\n      mstore\n        /* \"#utility.yul\":4528:4562   */\n      0x45524332303a20617070726f76652066726f6d20746865207a65726f20616464\n        /* \"#utility.yul\":4508:4526   */\n      0x44\n      dup3\n      add\n        /* \"#utility.yul\":4501:4563   */\n      mstore\n      shl(0xe0, 0x72657373)\n        /* \"#utility.yul\":4579:4597   */\n      0x64\n      dup3\n      add\n        /* \"#utility.yul\":4572:4606   */\n      mstore\n        /* \"#utility.yul\":4623:4642   */\n      0x84\n      add\n        /* \"mintable-token/@openzeppelin/contracts/token/ERC20/ERC20.sol\":10233:10301  require(owner != address(0), \"ERC20: approve from the zero address\") */\n      tag_131\n        /* \"#utility.yul\":4248:4648   */\n      jump\n        /* \"mintable-token/@openzeppelin/contracts/token/ERC20/ERC20.sol\":10233:10301  require(owner != address(0), \"ERC20: approve from the zero address\") */\n    tag_147:\n      sub(shl(0xa0, 0x01), 0x01)\n        /* \"mintable-token/@openzeppelin/contracts/token/ERC20/ERC20.sol\":10319:10340  spender != address(0) */\n      dup3\n      and\n        /* \"mintable-token/@openzeppelin/contracts/token/ERC20/ERC20.sol\":10311:10379  require(spender != address(0), \"ERC20: approve to the zero address\") */\n      tag_150\n      jumpi\n      mload(0x40)\n      shl(0xe5, 0x461bcd)\n      dup2\n      mstore\n        /* \"#utility.yul\":4855:4857   */\n      0x20\n        /* \"mintable-token/@openzeppelin/contracts/token/ERC20/ERC20.sol\":10311:10379  require(spender != address(0), \"ERC20: approve to the zero address\") */\n      0x04\n      dup3\n      add\n        /* \"#utility.yul\":4837:4858   */\n      mstore\n        /* \"#utility.yul\":4894:4896   */\n      0x22\n        /* \"#utility.yul\":4874:4892   */\n      0x24\n      dup3\n      add\n        /* \"#utility.yul\":4867:4897   */\n      mstore\n        /* \"#utility.yul\":4933:4967   */\n      0x45524332303a20617070726f766520746f20746865207a65726f206164647265\n        /* \"#utility.yul\":4913:4931   */\n      0x44\n      dup3\n      add\n        /* \"#utility.yul\":4906:4968   */\n      mstore\n      shl(0xf0, 0x7373)\n        /* \"#utility.yul\":4984:5002   */\n      0x64\n      dup3\n      add\n        /* \"#utility.yul\":4977:5009   */\n      mstore\n        /* \"#utility.yul\":5026:5045   */\n      0x84\n      add\n        /* \"mintable-token/@openzeppelin/contracts/token/ERC20/ERC20.sol\":10311:10379  require(spender != address(0), \"ERC20: approve to the zero address\") */\n      tag_131\n        /* \"#utility.yul\":4653:5051   */\n      jump\n        /* \"mintable-token/@openzeppelin/contracts/token/ERC20/ERC20.sol\":10311:10379  require(spender != address(0), \"ERC20: approve to the zero address\") */\n    tag_150:\n      sub(shl(0xa0, 0x01), 0x01)\n        /* \"mintable-token/@openzeppelin/contracts/token/ERC20/ERC20.sol\":10390:10408  _allowances[owner] */\n      dup4\n      dup2\n      and\n      0x00\n      dup2\n      dup2\n      mstore\n        /* \"mintable-token/@openzeppelin/contracts/token/ERC20/ERC20.sol\":10390:10401  _allowances */\n      0x01\n        /* \"mintable-token/@openzeppelin/contracts/token/ERC20/ERC20.sol\":10390:10408  _allowances[owner] */\n      0x20\n      swap1\n      dup2\n      mstore\n      0x40\n      dup1\n      dup4\n      keccak256\n        /* \"mintable-token/@openzeppelin/contracts/token/ERC20/ERC20.sol\":10390:10417  _allowances[owner][spender] */\n      swap5\n      dup8\n      and\n      dup1\n      dup5\n      mstore\n      swap5\n      dup3\n      mstore\n      swap2\n      dup3\n      swap1\n      keccak256\n        /* \"mintable-token/@openzeppelin/contracts/token/ERC20/ERC20.sol\":10390:10426  _allowances[owner][spender] = amount */\n      dup6\n      swap1\n      sstore\n        /* \"mintable-token/@openzeppelin/contracts/token/ERC20/ERC20.sol\":10441:10473  Approval(owner, spender, amount) */\n      swap1\n      mload\n        /* \"#utility.yul\":1342:1367   */\n      dup5\n      dup2\n      mstore\n        /* \"mintable-token/@openzeppelin/contracts/token/ERC20/ERC20.sol\":10441:10473  Approval(owner, spender, amount) */\n      0x8c5be1e5ebec7d5bd14f71427d1e84f3dd0314c0f7b2291e5b200ac8c7c3b925\n      swap2\n        /* \"#utility.yul\":1315:1333   */\n      add\n        /* \"mintable-token/@openzeppelin/contracts/token/ERC20/ERC20.sol\":10441:10473  Approval(owner, spender, amount) */\n      mload(0x40)\n      dup1\n      swap2\n      sub\n      swap1\n      log3\n        /* \"mintable-token/@openzeppelin/contracts/token/ERC20/ERC20.sol\":10110:10480  function _approve(... */\n      pop\n      pop\n      pop\n      jump\t// out\n        /* \"mintable-token/@openzeppelin/contracts/token/ERC20/ERC20.sol\":10761:11202  function _spendAllowance(... */\n    tag_98:\n        /* \"mintable-token/@openzeppelin/contracts/token/ERC20/ERC20.sol\":10891:10915  uint256 currentAllowance */\n      0x00\n        /* \"mintable-token/@openzeppelin/contracts/token/ERC20/ERC20.sol\":10918:10943  allowance(owner, spender) */\n      tag_155\n        /* \"mintable-token/@openzeppelin/contracts/token/ERC20/ERC20.sol\":10928:10933  owner */\n      dup5\n        /* \"mintable-token/@openzeppelin/contracts/token/ERC20/ERC20.sol\":10935:10942  spender */\n      dup5\n        /* \"mintable-token/@openzeppelin/contracts/token/ERC20/ERC20.sol\":10918:10927  allowance */\n      tag_77\n        /* \"mintable-token/@openzeppelin/contracts/token/ERC20/ERC20.sol\":10918:10943  allowance(owner, spender) */\n      jump\t// in\n    tag_155:\n        /* \"mintable-token/@openzeppelin/contracts/token/ERC20/ERC20.sol\":10891:10943  uint256 currentAllowance = allowance(owner, spender) */\n      swap1\n      pop\n      not(0x00)\n        /* \"mintable-token/@openzeppelin/contracts/token/ERC20/ERC20.sol\":10957:10973  currentAllowance */\n      dup2\n        /* \"mintable-token/@openzeppelin/contracts/token/ERC20/ERC20.sol\":10957:10994  currentAllowance != type(uint256).max */\n      eq\n        /* \"mintable-token/@openzeppelin/contracts/token/ERC20/ERC20.sol\":10953:11196  if (currentAllowance != type(uint256).max) {... */\n      tag_160\n      jumpi\n        /* \"mintable-token/@openzeppelin/contracts/token/ERC20/ERC20.sol\":11038:11044  amount */\n      dup2\n        /* \"mintable-token/@openzeppelin/contracts/token/ERC20/ERC20.sol\":11018:11034  currentAllowance */\n      dup2\n        /* \"mintable-token/@openzeppelin/contracts/token/ERC20/ERC20.sol\":11018:11044  currentAllowance >= amount */\n      lt\n      iszero\n        /* \"mintable-token/@openzeppelin/contracts/token/ERC20/ERC20.sol\":11010:11078  require(currentAllowance >= amount, \"ERC20: insufficient allowance\") */\n      tag_157\n      jumpi\n      mload(0x40)\n      shl(0xe5, 0x461bcd)\n      dup2\n      mstore\n        /* \"#utility.yul\":5258:5260   */\n      0x20\n        /* \"mintable-token/@openzeppelin/contracts/token/ERC20/ERC20.sol\":11010:11078  require(currentAllowance >= amount, \"ERC20: insufficient allowance\") */\n      0x04\n      dup3\n      add\n        /* \"#utility.yul\":5240:5261   */\n      mstore\n        /* \"#utility.yul\":5297:5299   */\n      0x1d\n        /* \"#utility.yul\":5277:5295   */\n      0x24\n      dup3\n      add\n        /* \"#utility.yul\":5270:5300   */\n      mstore\n        /* \"#utility.yul\":5336:5367   */\n      0x45524332303a20696e73756666696369656e7420616c6c6f77616e6365000000\n        /* \"#utility.yul\":5316:5334   */\n      0x44\n      dup3\n      add\n        /* \"#utility.yul\":5309:5368   */\n      mstore\n        /* \"#utility.yul\":5385:5403   */\n      0x64\n      add\n        /* \"mintable-token/@openzeppelin/contracts/token/ERC20/ERC20.sol\":11010:11078  require(currentAllowance >= amount, \"ERC20: insufficient allowance\") */\n      tag_131\n        /* \"#utility.yul\":5056:5409   */\n      jump\n        /* \"mintable-token/@openzeppelin/contracts/token/ERC20/ERC20.sol\":11010:11078  require(currentAllowance >= amount, \"ERC20: insufficient allowance\") */\n    tag_157:\n        /* \"mintable-token/@openzeppelin/contracts/token/ERC20/ERC20.sol\":11120:11171  _approve(owner, spender, currentAllowance - amount) */\n      tag_160\n        /* \"mintable-token/@openzeppelin/contracts/token/ERC20/ERC20.sol\":11129:11134  owner */\n      dup5\n        /* \"mintable-token/@openzeppelin/contracts/token/ERC20/ERC20.sol\":11136:11143  spender */\n      dup5\n        /* \"mintable-token/@openzeppelin/contracts/token/ERC20/ERC20.sol\":11164:11170  amount */\n      dup5\n        /* \"mintable-token/@openzeppelin/contracts/token/ERC20/ERC20.sol\":11145:11161  currentAllowance */\n      dup5\n        /* \"mintable-token/@openzeppelin/contracts/token/ERC20/ERC20.sol\":11145:11170  currentAllowance - amount */\n      sub\n        /* \"mintable-token/@openzeppelin/contracts/token/ERC20/ERC20.sol\":11120:11128  _approve */\n      tag_93\n        /* \"mintable-token/@openzeppelin/contracts/token/ERC20/ERC20.sol\":11120:11171  _approve(owner, spender, currentAllowance - amount) */\n      jump\t// in\n    tag_160:\n        /* \"mintable-token/@openzeppelin/contracts/token/ERC20/ERC20.sol\":10881:11202  {... */\n      pop\n        /* \"mintable-token/@openzeppelin/contracts/token/ERC20/ERC20.sol\":10761:11202  function _spendAllowance(... */\n      pop\n      pop\n      pop\n      jump\t// out\n        /* \"mintable-token/@openzeppelin/contracts/token/ERC20/ERC20.sol\":7475:8126  function _transfer(... */\n    tag_100:\n      sub(shl(0xa0, 0x01), 0x01)\n        /* \"mintable-token/@openzeppelin/contracts/token/ERC20/ERC20.sol\":7601:7619  from != address(0) */\n      dup4\n      and\n        /* \"mintable-token/@openzeppelin/contracts/token/ERC20/ERC20.sol\":7593:7661  require(from != address(0), \"ERC20: transfer from the zero address\") */\n      tag_162\n      jumpi\n      mload(0x40)\n      shl(0xe5, 0x461bcd)\n      dup2\n      mstore\n        /* \"#utility.yul\":5616:5618   */\n      0x20\n        /* \"mintable-token/@openzeppelin/contracts/token/ERC20/ERC20.sol\":7593:7661  require(from != address(0), \"ERC20: transfer from the zero address\") */\n      0x04\n      dup3\n      add\n        /* \"#utility.yul\":5598:5619   */\n      mstore\n        /* \"#utility.yul\":5655:5657   */\n      0x25\n        /* \"#utility.yul\":5635:5653   */\n      0x24\n      dup3\n      add\n        /* \"#utility.yul\":5628:5658   */\n      mstore\n        /* \"#utility.yul\":5694:5728   */\n      0x45524332303a207472616e736665722066726f6d20746865207a65726f206164\n        /* \"#utility.yul\":5674:5692   */\n      0x44\n      dup3\n      add\n        /* \"#utility.yul\":5667:5729   */\n      mstore\n      shl(0xd8, 0x6472657373)\n        /* \"#utility.yul\":5745:5763   */\n      0x64\n      dup3\n      add\n        /* \"#utility.yul\":5738:5773   */\n      mstore\n        /* \"#utility.yul\":5790:5809   */\n      0x84\n      add\n        /* \"mintable-token/@openzeppelin/contracts/token/ERC20/ERC20.sol\":7593:7661  require(from != address(0), \"ERC20: transfer from the zero address\") */\n      tag_131\n        /* \"#utility.yul\":5414:5815   */\n      jump\n        /* \"mintable-token/@openzeppelin/contracts/token/ERC20/ERC20.sol\":7593:7661  require(from != address(0), \"ERC20: transfer from the zero address\") */\n    tag_162:\n      sub(shl(0xa0, 0x01), 0x01)\n        /* \"mintable-token/@openzeppelin/contracts/token/ERC20/ERC20.sol\":7679:7695  to != address(0) */\n      dup3\n      and\n        /* \"mintable-token/@openzeppelin/contracts/token/ERC20/ERC20.sol\":7671:7735  require(to != address(0), \"ERC20: transfer to the zero address\") */\n      tag_165\n      jumpi\n      mload(0x40)\n      shl(0xe5, 0x461bcd)\n      dup2\n      mstore\n        /* \"#utility.yul\":6022:6024   */\n      0x20\n        /* \"mintable-token/@openzeppelin/contracts/token/ERC20/ERC20.sol\":7671:7735  require(to != address(0), \"ERC20: transfer to the zero address\") */\n      0x04\n      dup3\n      add\n        /* \"#utility.yul\":6004:6025   */\n      mstore\n        /* \"#utility.yul\":6061:6063   */\n      0x23\n        /* \"#utility.yul\":6041:6059   */\n      0x24\n      dup3\n      add\n        /* \"#utility.yul\":6034:6064   */\n      mstore\n        /* \"#utility.yul\":6100:6134   */\n      0x45524332303a207472616e7366657220746f20746865207a65726f2061646472\n        /* \"#utility.yul\":6080:6098   */\n      0x44\n      dup3\n      add\n        /* \"#utility.yul\":6073:6135   */\n      mstore\n      shl(0xe8, 0x657373)\n        /* \"#utility.yul\":6151:6169   */\n      0x64\n      dup3\n      add\n        /* \"#utility.yul\":6144:6177   */\n      mstore\n        /* \"#utility.yul\":6194:6213   */\n      0x84\n      add\n        /* \"mintable-token/@openzeppelin/contracts/token/ERC20/ERC20.sol\":7671:7735  require(to != address(0), \"ERC20: transfer to the zero address\") */\n      tag_131\n        /* \"#utility.yul\":5820:6219   */\n      jump\n        /* \"mintable-token/@openzeppelin/contracts/token/ERC20/ERC20.sol\":7671:7735  require(to != address(0), \"ERC20: transfer to the zero address\") */\n    tag_165:\n      sub(shl(0xa0, 0x01), 0x01)\n        /* \"mintable-token/@openzeppelin/contracts/token/ERC20/ERC20.sol\":7817:7832  _balances[from] */\n      dup4\n      and\n        /* \"mintable-token/@openzeppelin/contracts/token/ERC20/ERC20.sol\":7795:7814  uint256 fromBalance */\n      0x00\n        /* \"mintable-token/@openzeppelin/contracts/token/ERC20/ERC20.sol\":7817:7832  _balances[from] */\n      swap1\n      dup2\n      mstore\n      0x20\n      dup2\n      swap1\n      mstore\n      0x40\n      swap1\n      keccak256\n      sload\n        /* \"mintable-token/@openzeppelin/contracts/token/ERC20/ERC20.sol\":7850:7871  fromBalance >= amount */\n      dup2\n      dup2\n      lt\n      iszero\n        /* \"mintable-token/@openzeppelin/contracts/token/ERC20/ERC20.sol\":7842:7914  require(fromBalance >= amount, \"ERC20: transfer amount exceeds balance\") */\n      tag_170\n      jumpi\n      mload(0x40)\n      shl(0xe5, 0x461bcd)\n      dup2\n      mstore\n        /* \"#utility.yul\":6426:6428   */\n      0x20\n        /* \"mintable-token/@openzeppelin/contracts/token/ERC20/ERC20.sol\":7842:7914  require(fromBalance >= amount, \"ERC20: transfer amount exceeds balance\") */\n      0x04\n      dup3\n      add\n        /* \"#utility.yul\":6408:6429   */\n      mstore\n        /* \"#utility.yul\":6465:6467   */\n      0x26\n        /* \"#utility.yul\":6445:6463   */\n      0x24\n      dup3\n      add\n        /* \"#utility.yul\":6438:6468   */\n      mstore\n        /* \"#utility.yul\":6504:6538   */\n      0x45524332303a207472616e7366657220616d6f756e7420657863656564732062\n        /* \"#utility.yul\":6484:6502   */\n      0x44\n      dup3\n      add\n        /* \"#utility.yul\":6477:6539   */\n      mstore\n      shl(0xd0, 0x616c616e6365)\n        /* \"#utility.yul\":6555:6573   */\n      0x64\n      dup3\n      add\n        /* \"#utility.yul\":6548:6584   */\n      mstore\n        /* \"#utility.yul\":6601:6620   */\n      0x84\n      add\n        /* \"mintable-token/@openzeppelin/contracts/token/ERC20/ERC20.sol\":7842:7914  require(fromBalance >= amount, \"ERC20: transfer amount exceeds balance\") */\n      tag_131\n        /* \"#utility.yul\":6224:6626   */\n      jump\n        /* \"mintable-token/@openzeppelin/contracts/token/ERC20/ERC20.sol\":7842:7914  require(fromBalance >= amount, \"ERC20: transfer amount exceeds balance\") */\n    tag_170:\n      sub(shl(0xa0, 0x01), 0x01)\n        /* \"mintable-token/@openzeppelin/contracts/token/ERC20/ERC20.sol\":7948:7963  _balances[from] */\n      dup1\n      dup6\n      and\n        /* \"mintable-token/@openzeppelin/contracts/token/ERC20/ERC20.sol\":7948:7957  _balances */\n      0x00\n        /* \"mintable-token/@openzeppelin/contracts/token/ERC20/ERC20.sol\":7948:7963  _balances[from] */\n      swap1\n      dup2\n      mstore\n      0x20\n      dup2\n      swap1\n      mstore\n      0x40\n      dup1\n      dup3\n      keccak256\n        /* \"mintable-token/@openzeppelin/contracts/token/ERC20/ERC20.sol\":7966:7986  fromBalance - amount */\n      dup6\n      dup6\n      sub\n        /* \"mintable-token/@openzeppelin/contracts/token/ERC20/ERC20.sol\":7948:7986  _balances[from] = fromBalance - amount */\n      swap1\n      sstore\n        /* \"mintable-token/@openzeppelin/contracts/token/ERC20/ERC20.sol\":8006:8019  _balances[to] */\n      swap2\n      dup6\n      and\n      dup2\n      mstore\n      swap1\n      dup2\n      keccak256\n        /* \"mintable-token/@openzeppelin/contracts/token/ERC20/ERC20.sol\":8006:8029  _balances[to] += amount */\n      dup1\n      sload\n        /* \"mintable-token/@openzeppelin/contracts/token/ERC20/ERC20.sol\":7980:7986  amount */\n      dup5\n      swap3\n        /* \"mintable-token/@openzeppelin/contracts/token/ERC20/ERC20.sol\":7948:7957  _balances */\n      swap1\n        /* \"mintable-token/@openzeppelin/contracts/token/ERC20/ERC20.sol\":8006:8029  _balances[to] += amount */\n      tag_173\n      swap1\n        /* \"mintable-token/@openzeppelin/contracts/token/ERC20/ERC20.sol\":7980:7986  amount */\n      dup5\n      swap1\n        /* \"mintable-token/@openzeppelin/contracts/token/ERC20/ERC20.sol\":8006:8029  _balances[to] += amount */\n      tag_107\n      jump\t// in\n    tag_173:\n      swap3\n      pop\n      pop\n      dup2\n      swap1\n      sstore\n      pop\n        /* \"mintable-token/@openzeppelin/contracts/token/ERC20/ERC20.sol\":8060:8062  to */\n      dup3\n      sub(shl(0xa0, 0x01), 0x01)\n        /* \"mintable-token/@openzeppelin/contracts/token/ERC20/ERC20.sol\":8045:8071  Transfer(from, to, amount) */\n      and\n        /* \"mintable-token/@openzeppelin/contracts/token/ERC20/ERC20.sol\":8054:8058  from */\n      dup5\n      sub(shl(0xa0, 0x01), 0x01)\n        /* \"mintable-token/@openzeppelin/contracts/token/ERC20/ERC20.sol\":8045:8071  Transfer(from, to, amount) */\n      and\n      0xddf252ad1be2c89b69c2b068fc378daa952ba7f163c4a11628f55a4df523b3ef\n        /* \"mintable-token/@openzeppelin/contracts/token/ERC20/ERC20.sol\":8064:8070  amount */\n      dup5\n        /* \"mintable-token/@openzeppelin/contracts/token/ERC20/ERC20.sol\":8045:8071  Transfer(from, to, amount) */\n      mload(0x40)\n      tag_174\n      swap2\n        /* \"#utility.yul\":1342:1367   */\n      dup2\n      mstore\n        /* \"#utility.yul\":1330:1332   */\n      0x20\n        /* \"#utility.yul\":1315:1333   */\n      add\n      swap1\n        /* \"#utility.yul\":1196:1373   */\n      jump\n        /* \"mintable-token/@openzeppelin/contracts/token/ERC20/ERC20.sol\":8045:8071  Transfer(from, to, amount) */\n    tag_174:\n      mload(0x40)\n      dup1\n      swap2\n      sub\n      swap1\n      log3\n        /* \"mintable-token/@openzeppelin/contracts/token/ERC20/ERC20.sol\":8082:8119  _afterTokenTransfer(from, to, amount) */\n      tag_160\n        /* \"mintable-token/@openzeppelin/contracts/token/ERC20/ERC20.sol\":11786:11907  function _beforeTokenTransfer(... */\n      jump\n        /* \"mintable-token/@openzeppelin/contracts/access/Ownable.sol\":1359:1489  function _checkOwner() internal view virtual {... */\n    tag_111:\n        /* \"mintable-token/@openzeppelin/contracts/access/Ownable.sol\":1273:1279  _owner */\n      and(sub(shl(0xa0, 0x01), 0x01), sload(0x05))\n        /* \"mintable-token/@openzeppelin/contracts/utils/Context.sol\":719:729  msg.sender */\n      caller\n        /* \"mintable-token/@openzeppelin/contracts/access/Ownable.sol\":1422:1445  owner() == _msgSender() */\n      eq\n        /* \"mintable-token/@openzeppelin/contracts/access/Ownable.sol\":1414:1482  require(owner() == _msgSender(), \"Ownable: caller is not the owner\") */\n      tag_113\n      jumpi\n      mload(0x40)\n      shl(0xe5, 0x461bcd)\n      dup2\n      mstore\n        /* \"#utility.yul\":6833:6835   */\n      0x20\n        /* \"mintable-token/@openzeppelin/contracts/access/Ownable.sol\":1414:1482  require(owner() == _msgSender(), \"Ownable: caller is not the owner\") */\n      0x04\n      dup3\n      add\n        /* \"#utility.yul\":6815:6836   */\n      dup2\n      swap1\n      mstore\n        /* \"#utility.yul\":6852:6870   */\n      0x24\n      dup3\n      add\n        /* \"#utility.yul\":6845:6875   */\n      mstore\n        /* \"#utility.yul\":6911:6945   */\n      0x4f776e61626c653a2063616c6c6572206973206e6f7420746865206f776e6572\n        /* \"#utility.yul\":6891:6909   */\n      0x44\n      dup3\n      add\n        /* \"#utility.yul\":6884:6946   */\n      mstore\n        /* \"#utility.yul\":6963:6981   */\n      0x64\n      add\n        /* \"mintable-token/@openzeppelin/contracts/access/Ownable.sol\":1414:1482  require(owner() == _msgSender(), \"Ownable: caller is not the owner\") */\n      tag_131\n        /* \"#utility.yul\":6631:6987   */\n      jump\n        /* \"mintable-token/@openzeppelin/contracts/access/Ownable.sol\":2433:2620  function _transferOwnership(address newOwner) internal virtual {... */\n    tag_114:\n        /* \"mintable-token/@openzeppelin/contracts/access/Ownable.sol\":2525:2531  _owner */\n      0x05\n      dup1\n      sload\n      sub(shl(0xa0, 0x01), 0x01)\n        /* \"mintable-token/@openzeppelin/contracts/access/Ownable.sol\":2541:2558  _owner = newOwner */\n      dup4\n      dup2\n      and\n      not(sub(shl(0xa0, 0x01), 0x01))\n      dup4\n      and\n      dup2\n      or\n      swap1\n      swap4\n      sstore\n        /* \"mintable-token/@openzeppelin/contracts/access/Ownable.sol\":2573:2613  OwnershipTransferred(oldOwner, newOwner) */\n      mload(0x40)\n        /* \"mintable-token/@openzeppelin/contracts/access/Ownable.sol\":2525:2531  _owner */\n      swap2\n      and\n      swap2\n        /* \"mintable-token/@openzeppelin/contracts/access/Ownable.sol\":2541:2558  _owner = newOwner */\n      swap1\n        /* \"mintable-token/@openzeppelin/contracts/access/Ownable.sol\":2525:2531  _owner */\n      dup3\n      swap1\n        /* \"mintable-token/@openzeppelin/contracts/access/Ownable.sol\":2573:2613  OwnershipTransferred(oldOwner, newOwner) */\n      0x8be0079c531659141344cd1fd0a4f28419497f9722a3daafe3b4186f6b6457e0\n      swap1\n        /* \"mintable-token/@openzeppelin/contracts/access/Ownable.sol\":2506:2522  address oldOwner */\n      0x00\n      swap1\n        /* \"mintable-token/@openzeppelin/contracts/access/Ownable.sol\":2573:2613  OwnershipTransferred(oldOwner, newOwner) */\n      log3\n        /* \"mintable-token/@openzeppelin/contracts/access/Ownable.sol\":2496:2620  {... */\n      pop\n        /* \"mintable-token/@openzeppelin/contracts/access/Ownable.sol\":2433:2620  function _transferOwnership(address newOwner) internal virtual {... */\n      pop\n      jump\t// out\n        /* \"mintable-token/@openzeppelin/contracts/token/ERC20/ERC20.sol\":8402:8791  function _mint(address account, uint256 amount) internal virtual {... */\n    tag_120:\n      sub(shl(0xa0, 0x01), 0x01)\n        /* \"mintable-token/@openzeppelin/contracts/token/ERC20/ERC20.sol\":8485:8506  account != address(0) */\n      dup3\n      and\n        /* \"mintable-token/@openzeppelin/contracts/token/ERC20/ERC20.sol\":8477:8542  require(account != address(0), \"ERC20: mint to the zero address\") */\n      tag_185\n      jumpi\n      mload(0x40)\n      shl(0xe5, 0x461bcd)\n      dup2\n      mstore\n        /* \"#utility.yul\":7194:7196   */\n      0x20\n        /* \"mintable-token/@openzeppelin/contracts/token/ERC20/ERC20.sol\":8477:8542  require(account != address(0), \"ERC20: mint to the zero address\") */\n      0x04\n      dup3\n      add\n        /* \"#utility.yul\":7176:7197   */\n      mstore\n        /* \"#utility.yul\":7233:7235   */\n      0x1f\n        /* \"#utility.yul\":7213:7231   */\n      0x24\n      dup3\n      add\n        /* \"#utility.yul\":7206:7236   */\n      mstore\n        /* \"#utility.yul\":7272:7305   */\n      0x45524332303a206d696e7420746f20746865207a65726f206164647265737300\n        /* \"#utility.yul\":7252:7270   */\n      0x44\n      dup3\n      add\n        /* \"#utility.yul\":7245:7306   */\n      mstore\n        /* \"#utility.yul\":7323:7341   */\n      0x64\n      add\n        /* \"mintable-token/@openzeppelin/contracts/token/ERC20/ERC20.sol\":8477:8542  require(account != address(0), \"ERC20: mint to the zero address\") */\n      tag_131\n        /* \"#utility.yul\":6992:7347   */\n      jump\n        /* \"mintable-token/@openzeppelin/contracts/token/ERC20/ERC20.sol\":8477:8542  require(account != address(0), \"ERC20: mint to the zero address\") */\n    tag_185:\n        /* \"mintable-token/@openzeppelin/contracts/token/ERC20/ERC20.sol\":8629:8635  amount */\n      dup1\n        /* \"mintable-token/@openzeppelin/contracts/token/ERC20/ERC20.sol\":8613:8625  _totalSupply */\n      0x02\n      0x00\n        /* \"mintable-token/@openzeppelin/contracts/token/ERC20/ERC20.sol\":8613:8635  _totalSupply += amount */\n      dup3\n      dup3\n      sload\n      tag_189\n      swap2\n      swap1\n      tag_107\n      jump\t// in\n    tag_189:\n      swap1\n      swap2\n      sstore\n      pop\n      pop\n      sub(shl(0xa0, 0x01), 0x01)\n        /* \"mintable-token/@openzeppelin/contracts/token/ERC20/ERC20.sol\":8645:8663  _balances[account] */\n      dup3\n      and\n        /* \"mintable-token/@openzeppelin/contracts/token/ERC20/ERC20.sol\":8645:8654  _balances */\n      0x00\n        /* \"mintable-token/@openzeppelin/contracts/token/ERC20/ERC20.sol\":8645:8663  _balances[account] */\n      swap1\n      dup2\n      mstore\n      0x20\n      dup2\n      swap1\n      mstore\n      0x40\n      dup2\n      keccak256\n        /* \"mintable-token/@openzeppelin/contracts/token/ERC20/ERC20.sol\":8645:8673  _balances[account] += amount */\n      dup1\n      sload\n        /* \"mintable-token/@openzeppelin/contracts/token/ERC20/ERC20.sol\":8667:8673  amount */\n      dup4\n      swap3\n        /* \"mintable-token/@openzeppelin/contracts/token/ERC20/ERC20.sol\":8645:8654  _balances */\n      swap1\n        /* \"mintable-token/@openzeppelin/contracts/token/ERC20/ERC20.sol\":8645:8673  _balances[account] += amount */\n      tag_190\n      swap1\n        /* \"mintable-token/@openzeppelin/contracts/token/ERC20/ERC20.sol\":8667:8673  amount */\n      dup5\n      swap1\n        /* \"mintable-token/@openzeppelin/contracts/token/ERC20/ERC20.sol\":8645:8673  _balances[account] += amount */\n      tag_107\n      jump\t// in\n    tag_190:\n      swap1\n      swap2\n      sstore\n      pop\n      pop\n        /* \"mintable-token/@openzeppelin/contracts/token/ERC20/ERC20.sol\":8688:8725  Transfer(address(0), account, amount) */\n      mload(0x40)\n        /* \"#utility.yul\":1342:1367   */\n      dup2\n      dup2\n      mstore\n      sub(shl(0xa0, 0x01), 0x01)\n        /* \"mintable-token/@openzeppelin/contracts/token/ERC20/ERC20.sol\":8688:8725  Transfer(address(0), account, amount) */\n      dup4\n      and\n      swap1\n        /* \"mintable-token/@openzeppelin/contracts/token/ERC20/ERC20.sol\":8705:8706  0 */\n      0x00\n      swap1\n        /* \"mintable-token/@openzeppelin/contracts/token/ERC20/ERC20.sol\":8688:8725  Transfer(address(0), account, amount) */\n      0xddf252ad1be2c89b69c2b068fc378daa952ba7f163c4a11628f55a4df523b3ef\n      swap1\n        /* \"#utility.yul\":1330:1332   */\n      0x20\n        /* \"#utility.yul\":1315:1333   */\n      add\n        /* \"mintable-token/@openzeppelin/contracts/token/ERC20/ERC20.sol\":8688:8725  Transfer(address(0), account, amount) */\n      mload(0x40)\n      dup1\n      swap2\n      sub\n      swap1\n      log3\n        /* \"mintable-token/mintable-token.sol\":1175:1270  function mint(uint256 amount, address to) external onlyOwner {... */\n      pop\n      pop\n      jump\t// out\n        /* \"#utility.yul\":14:562   */\n    tag_24:\n        /* \"#utility.yul\":126:130   */\n      0x00\n        /* \"#utility.yul\":155:157   */\n      0x20\n        /* \"#utility.yul\":184:186   */\n      dup1\n        /* \"#utility.yul\":173:182   */\n      dup4\n        /* \"#utility.yul\":166:187   */\n      mstore\n        /* \"#utility.yul\":216:222   */\n      dup4\n        /* \"#utility.yul\":210:223   */\n      mload\n        /* \"#utility.yul\":259:265   */\n      dup1\n        /* \"#utility.yul\":254:256   */\n      0x20\n        /* \"#utility.yul\":243:252   */\n      dup6\n        /* \"#utility.yul\":239:257   */\n      add\n        /* \"#utility.yul\":232:266   */\n      mstore\n        /* \"#utility.yul\":284:285   */\n      0x00\n        /* \"#utility.yul\":294:434   */\n    tag_198:\n        /* \"#utility.yul\":308:314   */\n      dup2\n        /* \"#utility.yul\":305:306   */\n      dup2\n        /* \"#utility.yul\":302:315   */\n      lt\n        /* \"#utility.yul\":294:434   */\n      iszero\n      tag_200\n      jumpi\n        /* \"#utility.yul\":403:417   */\n      dup6\n      dup2\n      add\n        /* \"#utility.yul\":399:422   */\n      dup4\n      add\n        /* \"#utility.yul\":393:423   */\n      mload\n        /* \"#utility.yul\":369:386   */\n      dup6\n      dup3\n      add\n        /* \"#utility.yul\":388:390   */\n      0x40\n        /* \"#utility.yul\":365:391   */\n      add\n        /* \"#utility.yul\":358:424   */\n      mstore\n        /* \"#utility.yul\":323:333   */\n      dup3\n      add\n        /* \"#utility.yul\":294:434   */\n      jump(tag_198)\n    tag_200:\n        /* \"#utility.yul\":298:301   */\n      pop\n        /* \"#utility.yul\":483:484   */\n      0x00\n        /* \"#utility.yul\":478:480   */\n      0x40\n        /* \"#utility.yul\":469:475   */\n      dup3\n        /* \"#utility.yul\":458:467   */\n      dup7\n        /* \"#utility.yul\":454:476   */\n      add\n        /* \"#utility.yul\":450:481   */\n      add\n        /* \"#utility.yul\":443:485   */\n      mstore\n        /* \"#utility.yul\":553:555   */\n      0x40\n        /* \"#utility.yul\":546:548   */\n      0x1f\n        /* \"#utility.yul\":542:549   */\n      not\n        /* \"#utility.yul\":537:539   */\n      0x1f\n        /* \"#utility.yul\":529:535   */\n      dup4\n        /* \"#utility.yul\":525:540   */\n      add\n        /* \"#utility.yul\":521:550   */\n      and\n        /* \"#utility.yul\":510:519   */\n      dup6\n        /* \"#utility.yul\":506:551   */\n      add\n        /* \"#utility.yul\":502:556   */\n      add\n        /* \"#utility.yul\":494:556   */\n      swap3\n      pop\n      pop\n      pop\n        /* \"#utility.yul\":14:562   */\n      swap3\n      swap2\n      pop\n      pop\n      jump\t// out\n        /* \"#utility.yul\":567:740   */\n    tag_195:\n        /* \"#utility.yul\":635:655   */\n      dup1\n      calldataload\n      sub(shl(0xa0, 0x01), 0x01)\n        /* \"#utility.yul\":684:715   */\n      dup2\n      and\n        /* \"#utility.yul\":674:716   */\n      dup2\n      eq\n        /* \"#utility.yul\":664:734   */\n      tag_202\n      jumpi\n        /* \"#utility.yul\":730:731   */\n      0x00\n        /* \"#utility.yul\":727:728   */\n      dup1\n        /* \"#utility.yul\":720:732   */\n      revert\n        /* \"#utility.yul\":664:734   */\n    tag_202:\n        /* \"#utility.yul\":567:740   */\n      swap2\n      swap1\n      pop\n      jump\t// out\n        /* \"#utility.yul\":745:999   */\n    tag_27:\n        /* \"#utility.yul\":813:819   */\n      0x00\n        /* \"#utility.yul\":821:827   */\n      dup1\n        /* \"#utility.yul\":874:876   */\n      0x40\n        /* \"#utility.yul\":862:871   */\n      dup4\n        /* \"#utility.yul\":853:860   */\n      dup6\n        /* \"#utility.yul\":849:872   */\n      sub\n        /* \"#utility.yul\":845:877   */\n      slt\n        /* \"#utility.yul\":842:894   */\n      iszero\n      tag_204\n      jumpi\n        /* \"#utility.yul\":890:891   */\n      0x00\n        /* \"#utility.yul\":887:888   */\n      dup1\n        /* \"#utility.yul\":880:892   */\n      revert\n        /* \"#utility.yul\":842:894   */\n    tag_204:\n        /* \"#utility.yul\":913:942   */\n      tag_205\n        /* \"#utility.yul\":932:941   */\n      dup4\n        /* \"#utility.yul\":913:942   */\n      tag_195\n      jump\t// in\n    tag_205:\n        /* \"#utility.yul\":903:942   */\n      swap5\n        /* \"#utility.yul\":989:991   */\n      0x20\n        /* \"#utility.yul\":974:992   */\n      swap4\n      swap1\n      swap4\n      add\n        /* \"#utility.yul\":961:993   */\n      calldataload\n      swap4\n      pop\n      pop\n      pop\n        /* \"#utility.yul\":745:999   */\n      jump\t// out\n        /* \"#utility.yul\":1378:1706   */\n    tag_37:\n        /* \"#utility.yul\":1455:1461   */\n      0x00\n        /* \"#utility.yul\":1463:1469   */\n      dup1\n        /* \"#utility.yul\":1471:1477   */\n      0x00\n        /* \"#utility.yul\":1524:1526   */\n      0x60\n        /* \"#utility.yul\":1512:1521   */\n      dup5\n        /* \"#utility.yul\":1503:1510   */\n      dup7\n        /* \"#utility.yul\":1499:1522   */\n      sub\n        /* \"#utility.yul\":1495:1527   */\n      slt\n        /* \"#utility.yul\":1492:1544   */\n      iszero\n      tag_209\n      jumpi\n        /* \"#utility.yul\":1540:1541   */\n      0x00\n        /* \"#utility.yul\":1537:1538   */\n      dup1\n        /* \"#utility.yul\":1530:1542   */\n      revert\n        /* \"#utility.yul\":1492:1544   */\n    tag_209:\n        /* \"#utility.yul\":1563:1592   */\n      tag_210\n        /* \"#utility.yul\":1582:1591   */\n      dup5\n        /* \"#utility.yul\":1563:1592   */\n      tag_195\n      jump\t// in\n    tag_210:\n        /* \"#utility.yul\":1553:1592   */\n      swap3\n      pop\n        /* \"#utility.yul\":1611:1649   */\n      tag_211\n        /* \"#utility.yul\":1645:1647   */\n      0x20\n        /* \"#utility.yul\":1634:1643   */\n      dup6\n        /* \"#utility.yul\":1630:1648   */\n      add\n        /* \"#utility.yul\":1611:1649   */\n      tag_195\n      jump\t// in\n    tag_211:\n        /* \"#utility.yul\":1601:1649   */\n      swap2\n      pop\n        /* \"#utility.yul\":1696:1698   */\n      0x40\n        /* \"#utility.yul\":1685:1694   */\n      dup5\n        /* \"#utility.yul\":1681:1699   */\n      add\n        /* \"#utility.yul\":1668:1700   */\n      calldataload\n        /* \"#utility.yul\":1658:1700   */\n      swap1\n      pop\n        /* \"#utility.yul\":1378:1706   */\n      swap3\n      pop\n      swap3\n      pop\n      swap3\n      jump\t// out\n        /* \"#utility.yul\":1900:2086   */\n    tag_50:\n        /* \"#utility.yul\":1959:1965   */\n      0x00\n        /* \"#utility.yul\":2012:2014   */\n      0x20\n        /* \"#utility.yul\":2000:2009   */\n      dup3\n        /* \"#utility.yul\":1991:1998   */\n      dup5\n        /* \"#utility.yul\":1987:2010   */\n      sub\n        /* \"#utility.yul\":1983:2015   */\n      slt\n        /* \"#utility.yul\":1980:2032   */\n      iszero\n      tag_214\n      jumpi\n        /* \"#utility.yul\":2028:2029   */\n      0x00\n        /* \"#utility.yul\":2025:2026   */\n      dup1\n        /* \"#utility.yul\":2018:2030   */\n      revert\n        /* \"#utility.yul\":1980:2032   */\n    tag_214:\n        /* \"#utility.yul\":2051:2080   */\n      tag_215\n        /* \"#utility.yul\":2070:2079   */\n      dup3\n        /* \"#utility.yul\":2051:2080   */\n      tag_195\n      jump\t// in\n    tag_215:\n        /* \"#utility.yul\":2041:2080   */\n      swap4\n        /* \"#utility.yul\":1900:2086   */\n      swap3\n      pop\n      pop\n      pop\n      jump\t// out\n        /* \"#utility.yul\":2299:2553   */\n    tag_61:\n        /* \"#utility.yul\":2367:2373   */\n      0x00\n        /* \"#utility.yul\":2375:2381   */\n      dup1\n        /* \"#utility.yul\":2428:2430   */\n      0x40\n        /* \"#utility.yul\":2416:2425   */\n      dup4\n        /* \"#utility.yul\":2407:2414   */\n      dup6\n        /* \"#utility.yul\":2403:2426   */\n      sub\n        /* \"#utility.yul\":2399:2431   */\n      slt\n        /* \"#utility.yul\":2396:2448   */\n      iszero\n      tag_218\n      jumpi\n        /* \"#utility.yul\":2444:2445   */\n      0x00\n        /* \"#utility.yul\":2441:2442   */\n      dup1\n        /* \"#utility.yul\":2434:2446   */\n      revert\n        /* \"#utility.yul\":2396:2448   */\n    tag_218:\n        /* \"#utility.yul\":2480:2489   */\n      dup3\n        /* \"#utility.yul\":2467:2490   */\n      calldataload\n        /* \"#utility.yul\":2457:2490   */\n      swap2\n      pop\n        /* \"#utility.yul\":2509:2547   */\n      tag_219\n        /* \"#utility.yul\":2543:2545   */\n      0x20\n        /* \"#utility.yul\":2532:2541   */\n      dup5\n        /* \"#utility.yul\":2528:2546   */\n      add\n        /* \"#utility.yul\":2509:2547   */\n      tag_195\n      jump\t// in\n    tag_219:\n        /* \"#utility.yul\":2499:2547   */\n      swap1\n      pop\n        /* \"#utility.yul\":2299:2553   */\n      swap3\n      pop\n      swap3\n      swap1\n      pop\n      jump\t// out\n        /* \"#utility.yul\":2558:2818   */\n    tag_76:\n        /* \"#utility.yul\":2626:2632   */\n      0x00\n        /* \"#utility.yul\":2634:2640   */\n      dup1\n        /* \"#utility.yul\":2687:2689   */\n      0x40\n        /* \"#utility.yul\":2675:2684   */\n      dup4\n        /* \"#utility.yul\":2666:2673   */\n      dup6\n        /* \"#utility.yul\":2662:2685   */\n      sub\n        /* \"#utility.yul\":2658:2690   */\n      slt\n        /* \"#utility.yul\":2655:2707   */\n      iszero\n      tag_221\n      jumpi\n        /* \"#utility.yul\":2703:2704   */\n      0x00\n        /* \"#utility.yul\":2700:2701   */\n      dup1\n        /* \"#utility.yul\":2693:2705   */\n      revert\n        /* \"#utility.yul\":2655:2707   */\n    tag_221:\n        /* \"#utility.yul\":2726:2755   */\n      tag_222\n        /* \"#utility.yul\":2745:2754   */\n      dup4\n        /* \"#utility.yul\":2726:2755   */\n      tag_195\n      jump\t// in\n    tag_222:\n        /* \"#utility.yul\":2716:2755   */\n      swap2\n      pop\n        /* \"#utility.yul\":2774:2812   */\n      tag_219\n        /* \"#utility.yul\":2808:2810   */\n      0x20\n        /* \"#utility.yul\":2797:2806   */\n      dup5\n        /* \"#utility.yul\":2793:2811   */\n      add\n        /* \"#utility.yul\":2774:2812   */\n      tag_195\n      jump\t// in\n        /* \"#utility.yul\":2823:3203   */\n    tag_84:\n        /* \"#utility.yul\":2902:2903   */\n      0x01\n        /* \"#utility.yul\":2898:2910   */\n      dup2\n      dup2\n      shr\n      swap1\n        /* \"#utility.yul\":2945:2957   */\n      dup3\n      and\n      dup1\n        /* \"#utility.yul\":2966:3027   */\n      tag_225\n      jumpi\n        /* \"#utility.yul\":3020:3024   */\n      0x7f\n        /* \"#utility.yul\":3012:3018   */\n      dup3\n        /* \"#utility.yul\":3008:3025   */\n      and\n        /* \"#utility.yul\":2998:3025   */\n      swap2\n      pop\n        /* \"#utility.yul\":2966:3027   */\n    tag_225:\n        /* \"#utility.yul\":3073:3075   */\n      0x20\n        /* \"#utility.yul\":3065:3071   */\n      dup3\n        /* \"#utility.yul\":3062:3076   */\n      lt\n        /* \"#utility.yul\":3042:3060   */\n      dup2\n        /* \"#utility.yul\":3039:3077   */\n      sub\n        /* \"#utility.yul\":3036:3197   */\n      tag_226\n      jumpi\n        /* \"#utility.yul\":3119:3129   */\n      0x4e487b71\n        /* \"#utility.yul\":3114:3117   */\n      0xe0\n        /* \"#utility.yul\":3110:3130   */\n      shl\n        /* \"#utility.yul\":3107:3108   */\n      0x00\n        /* \"#utility.yul\":3100:3131   */\n      mstore\n        /* \"#utility.yul\":3154:3158   */\n      0x22\n        /* \"#utility.yul\":3151:3152   */\n      0x04\n        /* \"#utility.yul\":3144:3159   */\n      mstore\n        /* \"#utility.yul\":3182:3186   */\n      0x24\n        /* \"#utility.yul\":3179:3180   */\n      0x00\n        /* \"#utility.yul\":3172:3187   */\n      revert\n        /* \"#utility.yul\":3036:3197   */\n    tag_226:\n      pop\n        /* \"#utility.yul\":2823:3203   */\n      swap2\n      swap1\n      pop\n      jump\t// out\n        /* \"#utility.yul\":3208:3430   */\n    tag_107:\n        /* \"#utility.yul\":3273:3282   */\n      dup1\n      dup3\n      add\n        /* \"#utility.yul\":3294:3304   */\n      dup1\n      dup3\n      gt\n        /* \"#utility.yul\":3291:3424   */\n      iszero\n      tag_89\n      jumpi\n        /* \"#utility.yul\":3346:3356   */\n      0x4e487b71\n        /* \"#utility.yul\":3341:3344   */\n      0xe0\n        /* \"#utility.yul\":3337:3357   */\n      shl\n        /* \"#utility.yul\":3334:3335   */\n      0x00\n        /* \"#utility.yul\":3327:3358   */\n      mstore\n        /* \"#utility.yul\":3381:3385   */\n      0x11\n        /* \"#utility.yul\":3378:3379   */\n      0x04\n        /* \"#utility.yul\":3371:3386   */\n      mstore\n        /* \"#utility.yul\":3409:3413   */\n      0x24\n        /* \"#utility.yul\":3406:3407   */\n      0x00\n        /* \"#utility.yul\":3399:3414   */\n      revert\n\n    auxdata: 0xa26469706673582212202057af92e8da6052982fab1d161baf41b492587d94760caaa05acf8653bcad6e64736f6c63430008160033\n}\n",
				"bytecode": {
					"linkReferences": {},
					"object": "608060405260405162000fa738038062000fa7833981016040819052620000269162000277565b828260036200003683826200036e565b5060046200004582826200036e565b505050620000626200005c6200007760201b60201c565b6200007b565b6200006e3382620000cc565b50505062000460565b3390565b600580546001600160a01b038381166001600160a01b0319831681179093556040519116919082907f8be0079c531659141344cd1fd0a4f28419497f9722a3daafe3b4186f6b6457e0905f90a35050565b6001600160a01b038216620001275760405162461bcd60e51b815260206004820152601f60248201527f45524332303a206d696e7420746f20746865207a65726f206164647265737300604482015260640160405180910390fd5b8060025f8282546200013a91906200043a565b90915550506001600160a01b0382165f9081526020819052604081208054839290620001689084906200043a565b90915550506040518181526001600160a01b038316905f907fddf252ad1be2c89b69c2b068fc378daa952ba7f163c4a11628f55a4df523b3ef9060200160405180910390a35050565b505050565b634e487b7160e01b5f52604160045260245ffd5b5f82601f830112620001da575f80fd5b81516001600160401b0380821115620001f757620001f7620001b6565b604051601f8301601f19908116603f01168101908282118183101715620002225762000222620001b6565b81604052838152602092508660208588010111156200023f575f80fd5b5f91505b8382101562000262578582018301518183018401529082019062000243565b5f602085830101528094505050505092915050565b5f805f606084860312156200028a575f80fd5b83516001600160401b0380821115620002a1575f80fd5b620002af87838801620001ca565b94506020860151915080821115620002c5575f80fd5b50620002d486828701620001ca565b925050604084015190509250925092565b600181811c90821680620002fa57607f821691505b6020821081036200031957634e487b7160e01b5f52602260045260245ffd5b50919050565b601f821115620001b157805f5260205f20601f840160051c81016020851015620003465750805b601f840160051c820191505b8181101562000367575f815560010162000352565b5050505050565b81516001600160401b038111156200038a576200038a620001b6565b620003a2816200039b8454620002e5565b846200031f565b602080601f831160018114620003d8575f8415620003c05750858301515b5f19600386901b1c1916600185901b17855562000432565b5f85815260208120601f198616915b828110156200040857888601518255948401946001909101908401620003e7565b50858210156200042657878501515f19600388901b60f8161c191681555b505060018460011b0185555b505050505050565b808201808211156200045a57634e487b7160e01b5f52601160045260245ffd5b92915050565b610b39806200046e5f395ff3fe608060405234801561000f575f80fd5b50600436106100f0575f3560e01c8063715018a611610093578063a457c2d711610063578063a457c2d7146101e4578063a9059cbb146101f7578063dd62ed3e1461020a578063f2fde38b1461021d575f80fd5b8063715018a6146101a45780638da5cb5b146101ae57806394bf804d146101c957806395d89b41146101dc575f80fd5b806323b872dd116100ce57806323b872dd14610147578063313ce5671461015a578063395093511461016957806370a082311461017c575f80fd5b806306fdde03146100f4578063095ea7b31461011257806318160ddd14610135575b5f80fd5b6100fc610230565b6040516101099190610972565b60405180910390f35b6101256101203660046109d9565b6102c0565b6040519015158152602001610109565b6002545b604051908152602001610109565b610125610155366004610a01565b6102d9565b60405160128152602001610109565b6101256101773660046109d9565b6102fc565b61013961018a366004610a3a565b6001600160a01b03165f9081526020819052604090205490565b6101ac61031d565b005b6005546040516001600160a01b039091168152602001610109565b6101ac6101d7366004610a5a565b610330565b6100fc610346565b6101256101f23660046109d9565b610355565b6101256102053660046109d9565b6103d4565b610139610218366004610a84565b6103e1565b6101ac61022b366004610a3a565b61040b565b60606003805461023f90610aac565b80601f016020809104026020016040519081016040528092919081815260200182805461026b90610aac565b80156102b65780601f1061028d576101008083540402835291602001916102b6565b820191905f5260205f20905b81548152906001019060200180831161029957829003601f168201915b5050505050905090565b5f336102cd818585610484565b60019150505b92915050565b5f336102e68582856105a7565b6102f185858561061f565b506001949350505050565b5f336102cd81858561030e83836103e1565b6103189190610ae4565b610484565b6103256107eb565b61032e5f610845565b565b6103386107eb565b6103428183610896565b5050565b60606004805461023f90610aac565b5f338161036282866103e1565b9050838110156103c75760405162461bcd60e51b815260206004820152602560248201527f45524332303a2064656372656173656420616c6c6f77616e63652062656c6f77604482015264207a65726f60d81b60648201526084015b60405180910390fd5b6102f18286868403610484565b5f336102cd81858561061f565b6001600160a01b039182165f90815260016020908152604080832093909416825291909152205490565b6104136107eb565b6001600160a01b0381166104785760405162461bcd60e51b815260206004820152602660248201527f4f776e61626c653a206e6577206f776e657220697320746865207a65726f206160448201526564647265737360d01b60648201526084016103be565b61048181610845565b50565b6001600160a01b0383166104e65760405162461bcd60e51b8152602060048201526024808201527f45524332303a20617070726f76652066726f6d20746865207a65726f206164646044820152637265737360e01b60648201526084016103be565b6001600160a01b0382166105475760405162461bcd60e51b815260206004820152602260248201527f45524332303a20617070726f766520746f20746865207a65726f206164647265604482015261737360f01b60648201526084016103be565b6001600160a01b038381165f8181526001602090815260408083209487168084529482529182902085905590518481527f8c5be1e5ebec7d5bd14f71427d1e84f3dd0314c0f7b2291e5b200ac8c7c3b925910160405180910390a3505050565b5f6105b284846103e1565b90505f198114610619578181101561060c5760405162461bcd60e51b815260206004820152601d60248201527f45524332303a20696e73756666696369656e7420616c6c6f77616e636500000060448201526064016103be565b6106198484848403610484565b50505050565b6001600160a01b0383166106835760405162461bcd60e51b815260206004820152602560248201527f45524332303a207472616e736665722066726f6d20746865207a65726f206164604482015264647265737360d81b60648201526084016103be565b6001600160a01b0382166106e55760405162461bcd60e51b815260206004820152602360248201527f45524332303a207472616e7366657220746f20746865207a65726f206164647260448201526265737360e81b60648201526084016103be565b6001600160a01b0383165f908152602081905260409020548181101561075c5760405162461bcd60e51b815260206004820152602660248201527f45524332303a207472616e7366657220616d6f756e7420657863656564732062604482015265616c616e636560d01b60648201526084016103be565b6001600160a01b038085165f90815260208190526040808220858503905591851681529081208054849290610792908490610ae4565b92505081905550826001600160a01b0316846001600160a01b03167fddf252ad1be2c89b69c2b068fc378daa952ba7f163c4a11628f55a4df523b3ef846040516107de91815260200190565b60405180910390a3610619565b6005546001600160a01b0316331461032e5760405162461bcd60e51b815260206004820181905260248201527f4f776e61626c653a2063616c6c6572206973206e6f7420746865206f776e657260448201526064016103be565b600580546001600160a01b038381166001600160a01b0319831681179093556040519116919082907f8be0079c531659141344cd1fd0a4f28419497f9722a3daafe3b4186f6b6457e0905f90a35050565b6001600160a01b0382166108ec5760405162461bcd60e51b815260206004820152601f60248201527f45524332303a206d696e7420746f20746865207a65726f20616464726573730060448201526064016103be565b8060025f8282546108fd9190610ae4565b90915550506001600160a01b0382165f9081526020819052604081208054839290610929908490610ae4565b90915550506040518181526001600160a01b038316905f907fddf252ad1be2c89b69c2b068fc378daa952ba7f163c4a11628f55a4df523b3ef9060200160405180910390a35050565b5f602080835283518060208501525f5b8181101561099e57858101830151858201604001528201610982565b505f604082860101526040601f19601f8301168501019250505092915050565b80356001600160a01b03811681146109d4575f80fd5b919050565b5f80604083850312156109ea575f80fd5b6109f3836109be565b946020939093013593505050565b5f805f60608486031215610a13575f80fd5b610a1c846109be565b9250610a2a602085016109be565b9150604084013590509250925092565b5f60208284031215610a4a575f80fd5b610a53826109be565b9392505050565b5f8060408385031215610a6b575f80fd5b82359150610a7b602084016109be565b90509250929050565b5f8060408385031215610a95575f80fd5b610a9e836109be565b9150610a7b602084016109be565b600181811c90821680610ac057607f821691505b602082108103610ade57634e487b7160e01b5f52602260045260245ffd5b50919050565b808201808211156102d357634e487b7160e01b5f52601160045260245ffdfea26469706673582212202057af92e8da6052982fab1d161baf41b492587d94760caaa05acf8653bcad6e64736f6c63430008160033",
					"opcodes": "PUSH1 0x80 PUSH1 0x40 MSTORE PUSH1 0x40 MLOAD PUSH3 0xFA7 CODESIZE SUB DUP1 PUSH3 0xFA7 DUP4 CODECOPY DUP2 ADD PUSH1 0x40 DUP2 SWAP1 MSTORE PUSH3 0x26 SWAP2 PUSH3 0x277 JUMP JUMPDEST DUP3 DUP3 PUSH1 0x3 PUSH3 0x36 DUP4 DUP3 PUSH3 0x36E JUMP JUMPDEST POP PUSH1 0x4 PUSH3 0x45 DUP3 DUP3 PUSH3 0x36E JUMP JUMPDEST POP POP POP PUSH3 0x62 PUSH3 0x5C PUSH3 0x77 PUSH1 0x20 SHL PUSH1 0x20 SHR JUMP JUMPDEST PUSH3 0x7B JUMP JUMPDEST PUSH3 0x6E CALLER DUP3 PUSH3 0xCC JUMP JUMPDEST POP POP POP PUSH3 0x460 JUMP JUMPDEST CALLER SWAP1 JUMP JUMPDEST PUSH1 0x5 DUP1 SLOAD PUSH1 0x1 PUSH1 0x1 PUSH1 0xA0 SHL SUB DUP4 DUP2 AND PUSH1 0x1 PUSH1 0x1 PUSH1 0xA0 SHL SUB NOT DUP4 AND DUP2 OR SWAP1 SWAP4 SSTORE PUSH1 0x40 MLOAD SWAP2 AND SWAP2 SWAP1 DUP3 SWAP1 PUSH32 0x8BE0079C531659141344CD1FD0A4F28419497F9722A3DAAFE3B4186F6B6457E0 SWAP1 PUSH0 SWAP1 LOG3 POP POP JUMP JUMPDEST PUSH1 0x1 PUSH1 0x1 PUSH1 0xA0 SHL SUB DUP3 AND PUSH3 0x127 JUMPI PUSH1 0x40 MLOAD PUSH3 0x461BCD PUSH1 0xE5 SHL DUP2 MSTORE PUSH1 0x20 PUSH1 0x4 DUP3 ADD MSTORE PUSH1 0x1F PUSH1 0x24 DUP3 ADD MSTORE PUSH32 0x45524332303A206D696E7420746F20746865207A65726F206164647265737300 PUSH1 0x44 DUP3 ADD MSTORE PUSH1 0x64 ADD PUSH1 0x40 MLOAD DUP1 SWAP2 SUB SWAP1 REVERT JUMPDEST DUP1 PUSH1 0x2 PUSH0 DUP3 DUP3 SLOAD PUSH3 0x13A SWAP2 SWAP1 PUSH3 0x43A JUMP JUMPDEST SWAP1 SWAP2 SSTORE POP POP PUSH1 0x1 PUSH1 0x1 PUSH1 0xA0 SHL SUB DUP3 AND PUSH0 SWAP1 DUP2 MSTORE PUSH1 0x20 DUP2 SWAP1 MSTORE PUSH1 0x40 DUP2 KECCAK256 DUP1 SLOAD DUP4 SWAP3 SWAP1 PUSH3 0x168 SWAP1 DUP5 SWAP1 PUSH3 0x43A JUMP JUMPDEST SWAP1 SWAP2 SSTORE POP POP PUSH1 0x40 MLOAD DUP2 DUP2 MSTORE PUSH1 0x1 PUSH1 0x1 PUSH1 0xA0 SHL SUB DUP4 AND SWAP1 PUSH0 SWAP1 PUSH32 0xDDF252AD1BE2C89B69C2B068FC378DAA952BA7F163C4A11628F55A4DF523B3EF SWAP1 PUSH1 0x20 ADD PUSH1 0x40 MLOAD DUP1 SWAP2 SUB SWAP1 LOG3 POP POP JUMP JUMPDEST POP POP POP JUMP JUMPDEST PUSH4 0x4E487B71 PUSH1 0xE0 SHL PUSH0 MSTORE PUSH1 0x41 PUSH1 0x4 MSTORE PUSH1 0x24 PUSH0 REVERT JUMPDEST PUSH0 DUP3 PUSH1 0x1F DUP4 ADD SLT PUSH3 0x1DA JUMPI PUSH0 DUP1 REVERT JUMPDEST DUP2 MLOAD PUSH1 0x1 PUSH1 0x1 PUSH1 0x40 SHL SUB DUP1 DUP3 GT ISZERO PUSH3 0x1F7 JUMPI PUSH3 0x1F7 PUSH3 0x1B6 JUMP JUMPDEST PUSH1 0x40 MLOAD PUSH1 0x1F DUP4 ADD PUSH1 0x1F NOT SWAP1 DUP2 AND PUSH1 0x3F ADD AND DUP2 ADD SWAP1 DUP3 DUP3 GT DUP2 DUP4 LT OR ISZERO PUSH3 0x222 JUMPI PUSH3 0x222 PUSH3 0x1B6 JUMP JUMPDEST DUP2 PUSH1 0x40 MSTORE DUP4 DUP2 MSTORE PUSH1 0x20 SWAP3 POP DUP7 PUSH1 0x20 DUP6 DUP9 ADD ADD GT ISZERO PUSH3 0x23F JUMPI PUSH0 DUP1 REVERT JUMPDEST PUSH0 SWAP2 POP JUMPDEST DUP4 DUP3 LT ISZERO PUSH3 0x262 JUMPI DUP6 DUP3 ADD DUP4 ADD MLOAD DUP2 DUP4 ADD DUP5 ADD MSTORE SWAP1 DUP3 ADD SWAP1 PUSH3 0x243 JUMP JUMPDEST PUSH0 PUSH1 0x20 DUP6 DUP4 ADD ADD MSTORE DUP1 SWAP5 POP POP POP POP POP SWAP3 SWAP2 POP POP JUMP JUMPDEST PUSH0 DUP1 PUSH0 PUSH1 0x60 DUP5 DUP7 SUB SLT ISZERO PUSH3 0x28A JUMPI PUSH0 DUP1 REVERT JUMPDEST DUP4 MLOAD PUSH1 0x1 PUSH1 0x1 PUSH1 0x40 SHL SUB DUP1 DUP3 GT ISZERO PUSH3 0x2A1 JUMPI PUSH0 DUP1 REVERT JUMPDEST PUSH3 0x2AF DUP8 DUP4 DUP9 ADD PUSH3 0x1CA JUMP JUMPDEST SWAP5 POP PUSH1 0x20 DUP7 ADD MLOAD SWAP2 POP DUP1 DUP3 GT ISZERO PUSH3 0x2C5 JUMPI PUSH0 DUP1 REVERT JUMPDEST POP PUSH3 0x2D4 DUP7 DUP3 DUP8 ADD PUSH3 0x1CA JUMP JUMPDEST SWAP3 POP POP PUSH1 0x40 DUP5 ADD MLOAD SWAP1 POP SWAP3 POP SWAP3 POP SWAP3 JUMP JUMPDEST PUSH1 0x1 DUP2 DUP2 SHR SWAP1 DUP3 AND DUP1 PUSH3 0x2FA JUMPI PUSH1 0x7F DUP3 AND SWAP2 POP JUMPDEST PUSH1 0x20 DUP3 LT DUP2 SUB PUSH3 0x319 JUMPI PUSH4 0x4E487B71 PUSH1 0xE0 SHL PUSH0 MSTORE PUSH1 0x22 PUSH1 0x4 MSTORE PUSH1 0x24 PUSH0 REVERT JUMPDEST POP SWAP2 SWAP1 POP JUMP JUMPDEST PUSH1 0x1F DUP3 GT ISZERO PUSH3 0x1B1 JUMPI DUP1 PUSH0 MSTORE PUSH1 0x20 PUSH0 KECCAK256 PUSH1 0x1F DUP5 ADD PUSH1 0x5 SHR DUP2 ADD PUSH1 0x20 DUP6 LT ISZERO PUSH3 0x346 JUMPI POP DUP1 JUMPDEST PUSH1 0x1F DUP5 ADD PUSH1 0x5 SHR DUP3 ADD SWAP2 POP JUMPDEST DUP2 DUP2 LT ISZERO PUSH3 0x367 JUMPI PUSH0 DUP2 SSTORE PUSH1 0x1 ADD PUSH3 0x352 JUMP JUMPDEST POP POP POP POP POP JUMP JUMPDEST DUP2 MLOAD PUSH1 0x1 PUSH1 0x1 PUSH1 0x40 SHL SUB DUP2 GT ISZERO PUSH3 0x38A JUMPI PUSH3 0x38A PUSH3 0x1B6 JUMP JUMPDEST PUSH3 0x3A2 DUP2 PUSH3 0x39B DUP5 SLOAD PUSH3 0x2E5 JUMP JUMPDEST DUP5 PUSH3 0x31F JUMP JUMPDEST PUSH1 0x20 DUP1 PUSH1 0x1F DUP4 GT PUSH1 0x1 DUP2 EQ PUSH3 0x3D8 JUMPI PUSH0 DUP5 ISZERO PUSH3 0x3C0 JUMPI POP DUP6 DUP4 ADD MLOAD JUMPDEST PUSH0 NOT PUSH1 0x3 DUP7 SWAP1 SHL SHR NOT AND PUSH1 0x1 DUP6 SWAP1 SHL OR DUP6 SSTORE PUSH3 0x432 JUMP JUMPDEST PUSH0 DUP6 DUP2 MSTORE PUSH1 0x20 DUP2 KECCAK256 PUSH1 0x1F NOT DUP7 AND SWAP2 JUMPDEST DUP3 DUP2 LT ISZERO PUSH3 0x408 JUMPI DUP9 DUP7 ADD MLOAD DUP3 SSTORE SWAP5 DUP5 ADD SWAP5 PUSH1 0x1 SWAP1 SWAP2 ADD SWAP1 DUP5 ADD PUSH3 0x3E7 JUMP JUMPDEST POP DUP6 DUP3 LT ISZERO PUSH3 0x426 JUMPI DUP8 DUP6 ADD MLOAD PUSH0 NOT PUSH1 0x3 DUP9 SWAP1 SHL PUSH1 0xF8 AND SHR NOT AND DUP2 SSTORE JUMPDEST POP POP PUSH1 0x1 DUP5 PUSH1 0x1 SHL ADD DUP6 SSTORE JUMPDEST POP POP POP POP POP POP JUMP JUMPDEST DUP1 DUP3 ADD DUP1 DUP3 GT ISZERO PUSH3 0x45A JUMPI PUSH4 0x4E487B71 PUSH1 0xE0 SHL PUSH0 MSTORE PUSH1 0x11 PUSH1 0x4 MSTORE PUSH1 0x24 PUSH0 REVERT JUMPDEST SWAP3 SWAP2 POP POP JUMP JUMPDEST PUSH2 0xB39 DUP1 PUSH3 0x46E PUSH0 CODECOPY PUSH0 RETURN INVALID PUSH1 0x80 PUSH1 0x40 MSTORE CALLVALUE DUP1 ISZERO PUSH2 0xF JUMPI PUSH0 DUP1 REVERT JUMPDEST POP PUSH1 0x4 CALLDATASIZE LT PUSH2 0xF0 JUMPI PUSH0 CALLDATALOAD PUSH1 0xE0 SHR DUP1 PUSH4 0x715018A6 GT PUSH2 0x93 JUMPI DUP1 PUSH4 0xA457C2D7 GT PUSH2 0x63 JUMPI DUP1 PUSH4 0xA457C2D7 EQ PUSH2 0x1E4 JUMPI DUP1 PUSH4 0xA9059CBB EQ PUSH2 0x1F7 JUMPI DUP1 PUSH4 0xDD62ED3E EQ PUSH2 0x20A JUMPI DUP1 PUSH4 0xF2FDE38B EQ PUSH2 0x21D JUMPI PUSH0 DUP1 REVERT JUMPDEST DUP1 PUSH4 0x715018A6 EQ PUSH2 0x1A4 JUMPI DUP1 PUSH4 0x8DA5CB5B EQ PUSH2 0x1AE JUMPI DUP1 PUSH4 0x94BF804D EQ PUSH2 0x1C9 JUMPI DUP1 PUSH4 0x95D89B41 EQ PUSH2 0x1DC JUMPI PUSH0 DUP1 REVERT JUMPDEST DUP1 PUSH4 0x23B872DD GT PUSH2 0xCE JUMPI DUP1 PUSH4 0x23B872DD EQ PUSH2 0x147 JUMPI DUP1 PUSH4 0x313CE567 EQ PUSH2 0x15A JUMPI DUP1 PUSH4 0x39509351 EQ PUSH2 0x169 JUMPI DUP1 PUSH4 0x70A08231 EQ PUSH2 0x17C JUMPI PUSH0 DUP1 REVERT JUMPDEST DUP1 PUSH4 0x6FDDE03 EQ PUSH2 0xF4 JUMPI DUP1 PUSH4 0x95EA7B3 EQ PUSH2 0x112 JUMPI DUP1 PUSH4 0x18160DDD EQ PUSH2 0x135 JUMPI JUMPDEST PUSH0 DUP1 REVERT JUMPDEST PUSH2 0xFC PUSH2 0x230 JUMP JUMPDEST PUSH1 0x40 MLOAD PUSH2 0x109 SWAP2 SWAP1 PUSH2 0x972 JUMP JUMPDEST PUSH1 0x40 MLOAD DUP1 SWAP2 SUB SWAP1 RETURN JUMPDEST PUSH2 0x125 PUSH2 0x120 CALLDATASIZE PUSH1 0x4 PUSH2 0x9D9 JUMP JUMPDEST PUSH2 0x2C0 JUMP JUMPDEST PUSH1 0x40 MLOAD SWAP1 ISZERO ISZERO DUP2 MSTORE PUSH1 0x20 ADD PUSH2 0x109 JUMP JUMPDEST PUSH1 0x2 SLOAD JUMPDEST PUSH1 0x40 MLOAD SWAP1 DUP2 MSTORE PUSH1 0x20 ADD PUSH2 0x109 JUMP JUMPDEST PUSH2 0x125 PUSH2 0x155 CALLDATASIZE PUSH1 0x4 PUSH2 0xA01 JUMP JUMPDEST PUSH2 0x2D9 JUMP JUMPDEST PUSH1 0x40 MLOAD PUSH1 0x12 DUP2 MSTORE PUSH1 0x20 ADD PUSH2 0x109 JUMP JUMPDEST PUSH2 0x125 PUSH2 0x177 CALLDATASIZE PUSH1 0x4 PUSH2 0x9D9 JUMP JUMPDEST PUSH2 0x2FC JUMP JUMPDEST PUSH2 0x139 PUSH2 0x18A CALLDATASIZE PUSH1 0x4 PUSH2 0xA3A JUMP JUMPDEST PUSH1 0x1 PUSH1 0x1 PUSH1 0xA0 SHL SUB AND PUSH0 SWAP1 DUP2 MSTORE PUSH1 0x20 DUP2 SWAP1 MSTORE PUSH1 0x40 SWAP1 KECCAK256 SLOAD SWAP1 JUMP JUMPDEST PUSH2 0x1AC PUSH2 0x31D JUMP JUMPDEST STOP JUMPDEST PUSH1 0x5 SLOAD PUSH1 0x40 MLOAD PUSH1 0x1 PUSH1 0x1 PUSH1 0xA0 SHL SUB SWAP1 SWAP2 AND DUP2 MSTORE PUSH1 0x20 ADD PUSH2 0x109 JUMP JUMPDEST PUSH2 0x1AC PUSH2 0x1D7 CALLDATASIZE PUSH1 0x4 PUSH2 0xA5A JUMP JUMPDEST PUSH2 0x330 JUMP JUMPDEST PUSH2 0xFC PUSH2 0x346 JUMP JUMPDEST PUSH2 0x125 PUSH2 0x1F2 CALLDATASIZE PUSH1 0x4 PUSH2 0x9D9 JUMP JUMPDEST PUSH2 0x355 JUMP JUMPDEST PUSH2 0x125 PUSH2 0x205 CALLDATASIZE PUSH1 0x4 PUSH2 0x9D9 JUMP JUMPDEST PUSH2 0x3D4 JUMP JUMPDEST PUSH2 0x139 PUSH2 0x218 CALLDATASIZE PUSH1 0x4 PUSH2 0xA84 JUMP JUMPDEST PUSH2 0x3E1 JUMP JUMPDEST PUSH2 0x1AC PUSH2 0x22B CALLDATASIZE PUSH1 0x4 PUSH2 0xA3A JUMP JUMPDEST PUSH2 0x40B JUMP JUMPDEST PUSH1 0x60 PUSH1 0x3 DUP1 SLOAD PUSH2 0x23F SWAP1 PUSH2 0xAAC JUMP JUMPDEST DUP1 PUSH1 0x1F ADD PUSH1 0x20 DUP1 SWAP2 DIV MUL PUSH1 0x20 ADD PUSH1 0x40 MLOAD SWAP1 DUP2 ADD PUSH1 0x40 MSTORE DUP1 SWAP3 SWAP2 SWAP1 DUP2 DUP2 MSTORE PUSH1 0x20 ADD DUP3 DUP1 SLOAD PUSH2 0x26B SWAP1 PUSH2 0xAAC JUMP JUMPDEST DUP1 ISZERO PUSH2 0x2B6 JUMPI DUP1 PUSH1 0x1F LT PUSH2 0x28D JUMPI PUSH2 0x100 DUP1 DUP4 SLOAD DIV MUL DUP4 MSTORE SWAP2 PUSH1 0x20 ADD SWAP2 PUSH2 0x2B6 JUMP JUMPDEST DUP3 ADD SWAP2 SWAP1 PUSH0 MSTORE PUSH1 0x20 PUSH0 KECCAK256 SWAP1 JUMPDEST DUP2 SLOAD DUP2 MSTORE SWAP1 PUSH1 0x1 ADD SWAP1 PUSH1 0x20 ADD DUP1 DUP4 GT PUSH2 0x299 JUMPI DUP3 SWAP1 SUB PUSH1 0x1F AND DUP3 ADD SWAP2 JUMPDEST POP POP POP POP POP SWAP1 POP SWAP1 JUMP JUMPDEST PUSH0 CALLER PUSH2 0x2CD DUP2 DUP6 DUP6 PUSH2 0x484 JUMP JUMPDEST PUSH1 0x1 SWAP2 POP POP JUMPDEST SWAP3 SWAP2 POP POP JUMP JUMPDEST PUSH0 CALLER PUSH2 0x2E6 DUP6 DUP3 DUP6 PUSH2 0x5A7 JUMP JUMPDEST PUSH2 0x2F1 DUP6 DUP6 DUP6 PUSH2 0x61F JUMP JUMPDEST POP PUSH1 0x1 SWAP5 SWAP4 POP POP POP POP JUMP JUMPDEST PUSH0 CALLER PUSH2 0x2CD DUP2 DUP6 DUP6 PUSH2 0x30E DUP4 DUP4 PUSH2 0x3E1 JUMP JUMPDEST PUSH2 0x318 SWAP2 SWAP1 PUSH2 0xAE4 JUMP JUMPDEST PUSH2 0x484 JUMP JUMPDEST PUSH2 0x325 PUSH2 0x7EB JUMP JUMPDEST PUSH2 0x32E PUSH0 PUSH2 0x845 JUMP JUMPDEST JUMP JUMPDEST PUSH2 0x338 PUSH2 0x7EB JUMP JUMPDEST PUSH2 0x342 DUP2 DUP4 PUSH2 0x896 JUMP JUMPDEST POP POP JUMP JUMPDEST PUSH1 0x60 PUSH1 0x4 DUP1 SLOAD PUSH2 0x23F SWAP1 PUSH2 0xAAC JUMP JUMPDEST PUSH0 CALLER DUP2 PUSH2 0x362 DUP3 DUP7 PUSH2 0x3E1 JUMP JUMPDEST SWAP1 POP DUP4 DUP2 LT ISZERO PUSH2 0x3C7 JUMPI PUSH1 0x40 MLOAD PUSH3 0x461BCD PUSH1 0xE5 SHL DUP2 MSTORE PUSH1 0x20 PUSH1 0x4 DUP3 ADD MSTORE PUSH1 0x25 PUSH1 0x24 DUP3 ADD MSTORE PUSH32 0x45524332303A2064656372656173656420616C6C6F77616E63652062656C6F77 PUSH1 0x44 DUP3 ADD MSTORE PUSH5 0x207A65726F PUSH1 0xD8 SHL PUSH1 0x64 DUP3 ADD MSTORE PUSH1 0x84 ADD JUMPDEST PUSH1 0x40 MLOAD DUP1 SWAP2 SUB SWAP1 REVERT JUMPDEST PUSH2 0x2F1 DUP3 DUP7 DUP7 DUP5 SUB PUSH2 0x484 JUMP JUMPDEST PUSH0 CALLER PUSH2 0x2CD DUP2 DUP6 DUP6 PUSH2 0x61F JUMP JUMPDEST PUSH1 0x1 PUSH1 0x1 PUSH1 0xA0 SHL SUB SWAP2 DUP3 AND PUSH0 SWAP1 DUP2 MSTORE PUSH1 0x1 PUSH1 0x20 SWAP1 DUP2 MSTORE PUSH1 0x40 DUP1 DUP4 KECCAK256 SWAP4 SWAP1 SWAP5 AND DUP3 MSTORE SWAP2 SWAP1 SWAP2 MSTORE KECCAK256 SLOAD SWAP1 JUMP JUMPDEST PUSH2 0x413 PUSH2 0x7EB JUMP JUMPDEST PUSH1 0x1 PUSH1 0x1 PUSH1 0xA0 SHL SUB DUP2 AND PUSH2 0x478 JUMPI PUSH1 0x40 MLOAD PUSH3 0x461BCD PUSH1 0xE5 SHL DUP2 MSTORE PUSH1 0x20 PUSH1 0x4 DUP3 ADD MSTORE PUSH1 0x26 PUSH1 0x24 DUP3 ADD MSTORE PUSH32 0x4F776E61626C653A206E6577206F776E657220697320746865207A65726F2061 PUSH1 0x44 DUP3 ADD MSTORE PUSH6 0x646472657373 PUSH1 0xD0 SHL PUSH1 0x64 DUP3 ADD MSTORE PUSH1 0x84 ADD PUSH2 0x3BE JUMP JUMPDEST PUSH2 0x481 DUP2 PUSH2 0x845 JUMP JUMPDEST POP JUMP JUMPDEST PUSH1 0x1 PUSH1 0x1 PUSH1 0xA0 SHL SUB DUP4 AND PUSH2 0x4E6 JUMPI PUSH1 0x40 MLOAD PUSH3 0x461BCD PUSH1 0xE5 SHL DUP2 MSTORE PUSH1 0x20 PUSH1 0x4 DUP3 ADD MSTORE PUSH1 0x24 DUP1 DUP3 ADD MSTORE PUSH32 0x45524332303A20617070726F76652066726F6D20746865207A65726F20616464 PUSH1 0x44 DUP3 ADD MSTORE PUSH4 0x72657373 PUSH1 0xE0 SHL PUSH1 0x64 DUP3 ADD MSTORE PUSH1 0x84 ADD PUSH2 0x3BE JUMP JUMPDEST PUSH1 0x1 PUSH1 0x1 PUSH1 0xA0 SHL SUB DUP3 AND PUSH2 0x547 JUMPI PUSH1 0x40 MLOAD PUSH3 0x461BCD PUSH1 0xE5 SHL DUP2 MSTORE PUSH1 0x20 PUSH1 0x4 DUP3 ADD MSTORE PUSH1 0x22 PUSH1 0x24 DUP3 ADD MSTORE PUSH32 0x45524332303A20617070726F766520746F20746865207A65726F206164647265 PUSH1 0x44 DUP3 ADD MSTORE PUSH2 0x7373 PUSH1 0xF0 SHL PUSH1 0x64 DUP3 ADD MSTORE PUSH1 0x84 ADD PUSH2 0x3BE JUMP JUMPDEST PUSH1 0x1 PUSH1 0x1 PUSH1 0xA0 SHL SUB DUP4 DUP2 AND PUSH0 DUP2 DUP2 MSTORE PUSH1 0x1 PUSH1 0x20 SWAP1 DUP2 MSTORE PUSH1 0x40 DUP1 DUP4 KECCAK256 SWAP5 DUP8 AND DUP1 DUP5 MSTORE SWAP5 DUP3 MSTORE SWAP2 DUP3 SWAP1 KECCAK256 DUP6 SWAP1 SSTORE SWAP1 MLOAD DUP5 DUP2 MSTORE PUSH32 0x8C5BE1E5EBEC7D5BD14F71427D1E84F3DD0314C0F7B2291E5B200AC8C7C3B925 SWAP2 ADD PUSH1 0x40 MLOAD DUP1 SWAP2 SUB SWAP1 LOG3 POP POP POP JUMP JUMPDEST PUSH0 PUSH2 0x5B2 DUP5 DUP5 PUSH2 0x3E1 JUMP JUMPDEST SWAP1 POP PUSH0 NOT DUP2 EQ PUSH2 0x619 JUMPI DUP2 DUP2 LT ISZERO PUSH2 0x60C JUMPI PUSH1 0x40 MLOAD PUSH3 0x461BCD PUSH1 0xE5 SHL DUP2 MSTORE PUSH1 0x20 PUSH1 0x4 DUP3 ADD MSTORE PUSH1 0x1D PUSH1 0x24 DUP3 ADD MSTORE PUSH32 0x45524332303A20696E73756666696369656E7420616C6C6F77616E6365000000 PUSH1 0x44 DUP3 ADD MSTORE PUSH1 0x64 ADD PUSH2 0x3BE JUMP JUMPDEST PUSH2 0x619 DUP5 DUP5 DUP5 DUP5 SUB PUSH2 0x484 JUMP JUMPDEST POP POP POP POP JUMP JUMPDEST PUSH1 0x1 PUSH1 0x1 PUSH1 0xA0 SHL SUB DUP4 AND PUSH2 0x683 JUMPI PUSH1 0x40 MLOAD PUSH3 0x461BCD PUSH1 0xE5 SHL DUP2 MSTORE PUSH1 0x20 PUSH1 0x4 DUP3 ADD MSTORE PUSH1 0x25 PUSH1 0x24 DUP3 ADD MSTORE PUSH32 0x45524332303A207472616E736665722066726F6D20746865207A65726F206164 PUSH1 0x44 DUP3 ADD MSTORE PUSH5 0x6472657373 PUSH1 0xD8 SHL PUSH1 0x64 DUP3 ADD MSTORE PUSH1 0x84 ADD PUSH2 0x3BE JUMP JUMPDEST PUSH1 0x1 PUSH1 0x1 PUSH1 0xA0 SHL SUB DUP3 AND PUSH2 0x6E5 JUMPI PUSH1 0x40 MLOAD PUSH3 0x461BCD PUSH1 0xE5 SHL DUP2 MSTORE PUSH1 0x20 PUSH1 0x4 DUP3 ADD MSTORE PUSH1 0x23 PUSH1 0x24 DUP3 ADD MSTORE PUSH32 0x45524332303A207472616E7366657220746F20746865207A65726F2061646472 PUSH1 0x44 DUP3 ADD MSTORE PUSH3 0x657373 PUSH1 0xE8 SHL PUSH1 0x64 DUP3 ADD MSTORE PUSH1 0x84 ADD PUSH2 0x3BE JUMP JUMPDEST PUSH1 0x1 PUSH1 0x1 PUSH1 0xA0 SHL SUB DUP4 AND PUSH0 SWAP1 DUP2 MSTORE PUSH1 0x20 DUP2 SWAP1 MSTORE PUSH1 0x40 SWAP1 KECCAK256 SLOAD DUP2 DUP2 LT ISZERO PUSH2 0x75C JUMPI PUSH1 0x40 MLOAD PUSH3 0x461BCD PUSH1 0xE5 SHL DUP2 MSTORE PUSH1 0x20 PUSH1 0x4 DUP3 ADD MSTORE PUSH1 0x26 PUSH1 0x24 DUP3 ADD MSTORE PUSH32 0x45524332303A207472616E7366657220616D6F756E7420657863656564732062 PUSH1 0x44 DUP3 ADD MSTORE PUSH6 0x616C616E6365 PUSH1 0xD0 SHL PUSH1 0x64 DUP3 ADD MSTORE PUSH1 0x84 ADD PUSH2 0x3BE JUMP JUMPDEST PUSH1 0x1 PUSH1 0x1 PUSH1 0xA0 SHL SUB DUP1 DUP6 AND PUSH0 SWAP1 DUP2 MSTORE PUSH1 0x20 DUP2 SWAP1 MSTORE PUSH1 0x40 DUP1 DUP3 KECCAK256 DUP6 DUP6 SUB SWAP1 SSTORE SWAP2 DUP6 AND DUP2 MSTORE SWAP1 DUP2 KECCAK256 DUP1 SLOAD DUP5 SWAP3 SWAP1 PUSH2 0x792 SWAP1 DUP5 SWAP1 PUSH2 0xAE4 JUMP JUMPDEST SWAP3 POP POP DUP2 SWAP1 SSTORE POP DUP3 PUSH1 0x1 PUSH1 0x1 PUSH1 0xA0 SHL SUB AND DUP5 PUSH1 0x1 PUSH1 0x1 PUSH1 0xA0 SHL SUB AND PUSH32 0xDDF252AD1BE2C89B69C2B068FC378DAA952BA7F163C4A11628F55A4DF523B3EF DUP5 PUSH1 0x40 MLOAD PUSH2 0x7DE SWAP2 DUP2 MSTORE PUSH1 0x20 ADD SWAP1 JUMP JUMPDEST PUSH1 0x40 MLOAD DUP1 SWAP2 SUB SWAP1 LOG3 PUSH2 0x619 JUMP JUMPDEST PUSH1 0x5 SLOAD PUSH1 0x1 PUSH1 0x1 PUSH1 0xA0 SHL SUB AND CALLER EQ PUSH2 0x32E JUMPI PUSH1 0x40 MLOAD PUSH3 0x461BCD PUSH1 0xE5 SHL DUP2 MSTORE PUSH1 0x20 PUSH1 0x4 DUP3 ADD DUP2 SWAP1 MSTORE PUSH1 0x24 DUP3 ADD MSTORE PUSH32 0x4F776E61626C653A2063616C6C6572206973206E6F7420746865206F776E6572 PUSH1 0x44 DUP3 ADD MSTORE PUSH1 0x64 ADD PUSH2 0x3BE JUMP JUMPDEST PUSH1 0x5 DUP1 SLOAD PUSH1 0x1 PUSH1 0x1 PUSH1 0xA0 SHL SUB DUP4 DUP2 AND PUSH1 0x1 PUSH1 0x1 PUSH1 0xA0 SHL SUB NOT DUP4 AND DUP2 OR SWAP1 SWAP4 SSTORE PUSH1 0x40 MLOAD SWAP2 AND SWAP2 SWAP1 DUP3 SWAP1 PUSH32 0x8BE0079C531659141344CD1FD0A4F28419497F9722A3DAAFE3B4186F6B6457E0 SWAP1 PUSH0 SWAP1 LOG3 POP POP JUMP JUMPDEST PUSH1 0x1 PUSH1 0x1 PUSH1 0xA0 SHL SUB DUP3 AND PUSH2 0x8EC JUMPI PUSH1 0x40 MLOAD PUSH3 0x461BCD PUSH1 0xE5 SHL DUP2 MSTORE PUSH1 0x20 PUSH1 0x4 DUP3 ADD MSTORE PUSH1 0x1F PUSH1 0x24 DUP3 ADD MSTORE PUSH32 0x45524332303A206D696E7420746F20746865207A65726F206164647265737300 PUSH1 0x44 DUP3 ADD MSTORE PUSH1 0x64 ADD PUSH2 0x3BE JUMP JUMPDEST DUP1 PUSH1 0x2 PUSH0 DUP3 DUP3 SLOAD PUSH2 0x8FD SWAP2 SWAP1 PUSH2 0xAE4 JUMP JUMPDEST SWAP1 SWAP2 SSTORE POP POP PUSH1 0x1 PUSH1 0x1 PUSH1 0xA0 SHL SUB DUP3 AND PUSH0 SWAP1 DUP2 MSTORE PUSH1 0x20 DUP2 SWAP1 MSTORE PUSH1 0x40 DUP2 KECCAK256 DUP1 SLOAD DUP4 SWAP3 SWAP1 PUSH2 0x929 SWAP1 DUP5 SWAP1 PUSH2 0xAE4 JUMP JUMPDEST SWAP1 SWAP2 SSTORE POP POP PUSH1 0x40 MLOAD DUP2 DUP2 MSTORE PUSH1 0x1 PUSH1 0x1 PUSH1 0xA0 SHL SUB DUP4 AND SWAP1 PUSH0 SWAP1 PUSH32 0xDDF252AD1BE2C89B69C2B068FC378DAA952BA7F163C4A11628F55A4DF523B3EF SWAP1 PUSH1 0x20 ADD PUSH1 0x40 MLOAD DUP1 SWAP2 SUB SWAP1 LOG3 POP POP JUMP JUMPDEST PUSH0 PUSH1 0x20 DUP1 DUP4 MSTORE DUP4 MLOAD DUP1 PUSH1 0x20 DUP6 ADD MSTORE PUSH0 JUMPDEST DUP2 DUP2 LT ISZERO PUSH2 0x99E JUMPI DUP6 DUP2 ADD DUP4 ADD MLOAD DUP6 DUP3 ADD PUSH1 0x40 ADD MSTORE DUP3 ADD PUSH2 0x982 JUMP JUMPDEST POP PUSH0 PUSH1 0x40 DUP3 DUP7 ADD ADD MSTORE PUSH1 0x40 PUSH1 0x1F NOT PUSH1 0x1F DUP4 ADD AND DUP6 ADD ADD SWAP3 POP POP POP SWAP3 SWAP2 POP POP JUMP JUMPDEST DUP1 CALLDATALOAD PUSH1 0x1 PUSH1 0x1 PUSH1 0xA0 SHL SUB DUP2 AND DUP2 EQ PUSH2 0x9D4 JUMPI PUSH0 DUP1 REVERT JUMPDEST SWAP2 SWAP1 POP JUMP JUMPDEST PUSH0 DUP1 PUSH1 0x40 DUP4 DUP6 SUB SLT ISZERO PUSH2 0x9EA JUMPI PUSH0 DUP1 REVERT JUMPDEST PUSH2 0x9F3 DUP4 PUSH2 0x9BE JUMP JUMPDEST SWAP5 PUSH1 0x20 SWAP4 SWAP1 SWAP4 ADD CALLDATALOAD SWAP4 POP POP POP JUMP JUMPDEST PUSH0 DUP1 PUSH0 PUSH1 0x60 DUP5 DUP7 SUB SLT ISZERO PUSH2 0xA13 JUMPI PUSH0 DUP1 REVERT JUMPDEST PUSH2 0xA1C DUP5 PUSH2 0x9BE JUMP JUMPDEST SWAP3 POP PUSH2 0xA2A PUSH1 0x20 DUP6 ADD PUSH2 0x9BE JUMP JUMPDEST SWAP2 POP PUSH1 0x40 DUP5 ADD CALLDATALOAD SWAP1 POP SWAP3 POP SWAP3 POP SWAP3 JUMP JUMPDEST PUSH0 PUSH1 0x20 DUP3 DUP5 SUB SLT ISZERO PUSH2 0xA4A JUMPI PUSH0 DUP1 REVERT JUMPDEST PUSH2 0xA53 DUP3 PUSH2 0x9BE JUMP JUMPDEST SWAP4 SWAP3 POP POP POP JUMP JUMPDEST PUSH0 DUP1 PUSH1 0x40 DUP4 DUP6 SUB SLT ISZERO PUSH2 0xA6B JUMPI PUSH0 DUP1 REVERT JUMPDEST DUP3 CALLDATALOAD SWAP2 POP PUSH2 0xA7B PUSH1 0x20 DUP5 ADD PUSH2 0x9BE JUMP JUMPDEST SWAP1 POP SWAP3 POP SWAP3 SWAP1 POP JUMP JUMPDEST PUSH0 DUP1 PUSH1 0x40 DUP4 DUP6 SUB SLT ISZERO PUSH2 0xA95 JUMPI PUSH0 DUP1 REVERT JUMPDEST PUSH2 0xA9E DUP4 PUSH2 0x9BE JUMP JUMPDEST SWAP2 POP PUSH2 0xA7B PUSH1 0x20 DUP5 ADD PUSH2 0x9BE JUMP JUMPDEST PUSH1 0x1 DUP2 DUP2 SHR SWAP1 DUP3 AND DUP1 PUSH2 0xAC0 JUMPI PUSH1 0x7F DUP3 AND SWAP2 POP JUMPDEST PUSH1 0x20 DUP3 LT DUP2 SUB PUSH2 0xADE JUMPI PUSH4 0x4E487B71 PUSH1 0xE0 SHL PUSH0 MSTORE PUSH1 0x22 PUSH1 0x4 MSTORE PUSH1 0x24 PUSH0 REVERT JUMPDEST POP SWAP2 SWAP1 POP JUMP JUMPDEST DUP1 DUP3 ADD DUP1 DUP3 GT ISZERO PUSH2 0x2D3 JUMPI PUSH4 0x4E487B71 PUSH1 0xE0 SHL PUSH0 MSTORE PUSH1 0x11 PUSH1 0x4 MSTORE PUSH1 0x24 PUSH0 REVERT INVALID LOG2 PUSH5 0x6970667358 0x22 SLT KECCAK256 KECCAK256 JUMPI 0xAF SWAP3 0xE8 0xDA PUSH1 0x52 SWAP9 0x2F 0xAB SAR AND SHL 0xAF COINBASE 0xB4 SWAP3 PC PUSH30 0x94760CAAA05ACF8653BCAD6E64736F6C6343000816003300000000000000 "
				},
				"gasEstimates": {
					"creation": {
						"codeDepositCost": "574600",
						"executionCost": "infinite",
						"totalCost": "infinite"
					},
					"external": {
						"allowance(address,address)": "infinite",
						"approve(address,uint256)": "24647",
						"balanceOf(address)": "2626",
						"decimals()": "221",
						"decreaseAllowance(address,uint256)": "26967",
						"increaseAllowance(address,uint256)": "infinite",
						"mint(uint256,address)": "infinite",
						"name()": "infinite",
						"owner()": "2345",
						"renounceOwnership()": "infinite",
						"symbol()": "infinite",
						"totalSupply()": "2348",
						"transfer(address,uint256)": "infinite",
						"transferFrom(address,address,uint256)": "infinite",
						"transferOwnership(address)": "28421"
					}
				},
				"methodIdentifiers": {
					"allowance(address,address)": "dd62ed3e",
					"approve(address,uint256)": "095ea7b3",
					"balanceOf(address)": "70a08231",
					"decimals()": "313ce567",
					"decreaseAllowance(address,uint256)": "a457c2d7",
					"increaseAllowance(address,uint256)": "39509351",
					"mint(uint256,address)": "94bf804d",
					"name()": "06fdde03",
					"owner()": "8da5cb5b",
					"renounceOwnership()": "715018a6",
					"symbol()": "95d89b41",
					"totalSupply()": "18160ddd",
					"transfer(address,uint256)": "a9059cbb",
					"transferFrom(address,address,uint256)": "23b872dd",
					"transferOwnership(address)": "f2fde38b"
				}
			},
			"storageLayout": {
				"storage": [
					{
						"astId": 128,
						"contract": "mintable-token/mintable-token.sol:FREE",
						"label": "_balances",
						"offset": 0,
						"slot": "0",
						"type": "t_mapping(t_address,t_uint256)"
					},
					{
						"astId": 134,
						"contract": "mintable-token/mintable-token.sol:FREE",
						"label": "_allowances",
						"offset": 0,
						"slot": "1",
						"type": "t_mapping(t_address,t_mapping(t_address,t_uint256))"
					},
					{
						"astId": 136,
						"contract": "mintable-token/mintable-token.sol:FREE",
						"label": "_totalSupply",
						"offset": 0,
						"slot": "2",
						"type": "t_uint256"
					},
					{
						"astId": 138,
						"contract": "mintable-token/mintable-token.sol:FREE",
						"label": "_name",
						"offset": 0,
						"slot": "3",
						"type": "t_string_storage"
					},
					{
						"astId": 140,
						"contract": "mintable-token/mintable-token.sol:FREE",
						"label": "_symbol",
						"offset": 0,
						"slot": "4",
						"type": "t_string_storage"
					},
					{
						"astId": 7,
						"contract": "mintable-token/mintable-token.sol:FREE",
						"label": "_owner",
						"offset": 0,
						"slot": "5",
						"type": "t_address"
					}
				],
				"types": {
					"t_address": {
						"encoding": "inplace",
						"label": "address",
						"numberOfBytes": "20"
					},
					"t_mapping(t_address,t_mapping(t_address,t_uint256))": {
						"encoding": "mapping",
						"key": "t_address",
						"label": "mapping(address => mapping(address => uint256))",
						"numberOfBytes": "32",
						"value": "t_mapping(t_address,t_uint256)"
					},
					"t_mapping(t_address,t_uint256)": {
						"encoding": "mapping",
						"key": "t_address",
						"label": "mapping(address => uint256)",
						"numberOfBytes": "32",
						"value": "t_uint256"
					},
					"t_string_storage": {
						"encoding": "bytes",
						"label": "string",
						"numberOfBytes": "32"
					},
					"t_uint256": {
						"encoding": "inplace",
						"label": "uint256",
						"numberOfBytes": "32"
					}
				}
			},
			"userdoc": {
				"kind": "user",
				"methods": {},
				"notice": "Token, ERC20, Mintable",
				"version": 1
			}
		}
	}
}